{
  "contractName": "DApp",
  "abi": [
    {
      "anonymous": false,
      "inputs": [
        {
          "indexed": false,
          "internalType": "uint256",
          "name": "number",
          "type": "uint256"
        }
      ],
      "name": "Action",
      "type": "event"
    },
    {
      "inputs": [],
      "name": "number",
      "outputs": [
        {
          "internalType": "uint256",
          "name": "",
          "type": "uint256"
        }
      ],
      "stateMutability": "view",
      "type": "function",
      "constant": true
    },
    {
      "inputs": [
        {
          "internalType": "uint256",
          "name": "_number",
          "type": "uint256"
        }
      ],
      "name": "setnumber",
      "outputs": [],
      "stateMutability": "nonpayable",
      "type": "function"
    },
    {
      "inputs": [],
      "name": "returnnumber",
      "outputs": [
        {
          "internalType": "uint256",
          "name": "",
          "type": "uint256"
        }
      ],
      "stateMutability": "view",
      "type": "function",
      "constant": true
    }
  ],
  "bytecode": "0x608060405234801561001057600080fd5b506101af806100206000396000f3fe608060405234801561001057600080fd5b50600436106100415760003560e01c80638381f58a14610046578063a632a2e514610064578063f404f2a914610080575b600080fd5b61004e61009e565b60405161005b919061013d565b60405180910390f35b61007e60048036038101906100799190610105565b6100a4565b005b6100886100e7565b604051610095919061013d565b60405180910390f35b60005481565b806000819055507f6e1ea285d938f50940b045a76ae5cd13c9e6e1ff6b06be77013cfda2b3698cec6000546040516100dc919061013d565b60405180910390a150565b60008054905090565b6000813590506100ff81610162565b92915050565b60006020828403121561011757600080fd5b6000610125848285016100f0565b91505092915050565b61013781610158565b82525050565b6000602082019050610152600083018461012e565b92915050565b6000819050919050565b61016b81610158565b811461017657600080fd5b5056fea26469706673582212206a58475e404d0275411344a75985db85e3a27ad74ce7a453422083cbc727ed3a64736f6c634300060a0033",
  "immutableReferences": {},
  "source": "// SPDX-License-Identifier: MIT\npragma solidity >=0.6.0 <0.7.0;\npragma experimental ABIEncoderV2;\n\ncontract DApp {\n\n \tevent Action(uint number);\n\n \tuint public number;\n\n \tfunction setnumber(uint _number) public {\n    \tnumber = _number;\n        emit Action(number);\n    } \n\n    function returnnumber() public view returns (uint) {\n        return number;\n    }\n     \n}",
  "sourcePath": "/home/dora/1. Kassavin/2. DApps/1_Value/contracts/DAppFile.sol",
  "compiler": {
    "name": "solc",
    "version": "0.6.10+commit.00c0fcaf.Emscripten.clang"
  },
  "schemaVersion": "3.2.2",
  "updatedAt": "2020-07-10T15:00:06.488Z",
  "networkType": "ethereum",
  "devdoc": {
    "methods": {}
  },
  "userdoc": {
    "methods": {}
  }
}