{
  "contractName": "ERC721Token",
  "abi": [
    {
      "inputs": [
        {
          "internalType": "string",
          "name": "_tokenURIBase",
          "type": "string"
        }
      ],
      "payable": false,
      "stateMutability": "nonpayable",
      "type": "constructor"
    },
    {
      "anonymous": false,
      "inputs": [
        {
          "indexed": true,
          "internalType": "address",
          "name": "_owner",
          "type": "address"
        },
        {
          "indexed": true,
          "internalType": "address",
          "name": "_approved",
          "type": "address"
        },
        {
          "indexed": true,
          "internalType": "uint256",
          "name": "_tokenId",
          "type": "uint256"
        }
      ],
      "name": "Approval",
      "type": "event"
    },
    {
      "anonymous": false,
      "inputs": [
        {
          "indexed": true,
          "internalType": "address",
          "name": "_owner",
          "type": "address"
        },
        {
          "indexed": true,
          "internalType": "address",
          "name": "_operator",
          "type": "address"
        },
        {
          "indexed": false,
          "internalType": "bool",
          "name": "_approved",
          "type": "bool"
        }
      ],
      "name": "ApprovalForAll",
      "type": "event"
    },
    {
      "anonymous": false,
      "inputs": [
        {
          "indexed": true,
          "internalType": "address",
          "name": "_from",
          "type": "address"
        },
        {
          "indexed": true,
          "internalType": "address",
          "name": "_to",
          "type": "address"
        },
        {
          "indexed": true,
          "internalType": "uint256",
          "name": "_tokenId",
          "type": "uint256"
        }
      ],
      "name": "Transfer",
      "type": "event"
    },
    {
      "constant": true,
      "inputs": [],
      "name": "tokenURIBase",
      "outputs": [
        {
          "internalType": "string",
          "name": "",
          "type": "string"
        }
      ],
      "payable": false,
      "stateMutability": "view",
      "type": "function"
    },
    {
      "constant": true,
      "inputs": [
        {
          "internalType": "uint256",
          "name": "_tokenId",
          "type": "uint256"
        }
      ],
      "name": "tokenURI",
      "outputs": [
        {
          "internalType": "string",
          "name": "",
          "type": "string"
        }
      ],
      "payable": false,
      "stateMutability": "view",
      "type": "function"
    },
    {
      "constant": true,
      "inputs": [
        {
          "internalType": "address",
          "name": "_owner",
          "type": "address"
        }
      ],
      "name": "balanceOf",
      "outputs": [
        {
          "internalType": "uint256",
          "name": "",
          "type": "uint256"
        }
      ],
      "payable": false,
      "stateMutability": "view",
      "type": "function"
    },
    {
      "constant": true,
      "inputs": [
        {
          "internalType": "uint256",
          "name": "_tokenId",
          "type": "uint256"
        }
      ],
      "name": "ownerOf",
      "outputs": [
        {
          "internalType": "address",
          "name": "",
          "type": "address"
        }
      ],
      "payable": false,
      "stateMutability": "view",
      "type": "function"
    },
    {
      "constant": false,
      "inputs": [
        {
          "internalType": "address",
          "name": "_from",
          "type": "address"
        },
        {
          "internalType": "address",
          "name": "_to",
          "type": "address"
        },
        {
          "internalType": "uint256",
          "name": "_tokenId",
          "type": "uint256"
        }
      ],
      "name": "safeTransferFrom",
      "outputs": [],
      "payable": true,
      "stateMutability": "payable",
      "type": "function"
    },
    {
      "constant": false,
      "inputs": [
        {
          "internalType": "address",
          "name": "_from",
          "type": "address"
        },
        {
          "internalType": "address",
          "name": "_to",
          "type": "address"
        },
        {
          "internalType": "uint256",
          "name": "_tokenId",
          "type": "uint256"
        },
        {
          "internalType": "bytes",
          "name": "data",
          "type": "bytes"
        }
      ],
      "name": "safeTransferFrom",
      "outputs": [],
      "payable": true,
      "stateMutability": "payable",
      "type": "function"
    },
    {
      "constant": false,
      "inputs": [
        {
          "internalType": "address",
          "name": "_from",
          "type": "address"
        },
        {
          "internalType": "address",
          "name": "_to",
          "type": "address"
        },
        {
          "internalType": "uint256",
          "name": "_tokenId",
          "type": "uint256"
        }
      ],
      "name": "transferFrom",
      "outputs": [],
      "payable": true,
      "stateMutability": "payable",
      "type": "function"
    },
    {
      "constant": false,
      "inputs": [
        {
          "internalType": "address",
          "name": "_approved",
          "type": "address"
        },
        {
          "internalType": "uint256",
          "name": "_tokenId",
          "type": "uint256"
        }
      ],
      "name": "approve",
      "outputs": [],
      "payable": true,
      "stateMutability": "payable",
      "type": "function"
    },
    {
      "constant": false,
      "inputs": [
        {
          "internalType": "address",
          "name": "_operator",
          "type": "address"
        },
        {
          "internalType": "bool",
          "name": "_approved",
          "type": "bool"
        }
      ],
      "name": "setApprovalForAll",
      "outputs": [],
      "payable": false,
      "stateMutability": "nonpayable",
      "type": "function"
    },
    {
      "constant": true,
      "inputs": [
        {
          "internalType": "uint256",
          "name": "_tokenId",
          "type": "uint256"
        }
      ],
      "name": "getApproved",
      "outputs": [
        {
          "internalType": "address",
          "name": "",
          "type": "address"
        }
      ],
      "payable": false,
      "stateMutability": "view",
      "type": "function"
    },
    {
      "constant": true,
      "inputs": [
        {
          "internalType": "address",
          "name": "_owner",
          "type": "address"
        },
        {
          "internalType": "address",
          "name": "_operator",
          "type": "address"
        }
      ],
      "name": "isApprovedForAll",
      "outputs": [
        {
          "internalType": "bool",
          "name": "",
          "type": "bool"
        }
      ],
      "payable": false,
      "stateMutability": "view",
      "type": "function"
    }
  ],
  "bytecode": "0x60806040523480156200001157600080fd5b50604051620016aa380380620016aa833981810160405262000037919081019062000162565b80600090805190602001906200004f92919062000057565b505062000238565b828054600181600116156101000203166002900490600052602060002090601f016020900481019282601f106200009a57805160ff1916838001178555620000cb565b82800160010185558215620000cb579182015b82811115620000ca578251825591602001919060010190620000ad565b5b509050620000da9190620000de565b5090565b6200010391905b80821115620000ff576000816000905550600101620000e5565b5090565b90565b600082601f8301126200011857600080fd5b81516200012f6200012982620001d5565b620001a7565b915080825260208301602083018583830111156200014c57600080fd5b6200015983828462000202565b50505092915050565b6000602082840312156200017557600080fd5b600082015167ffffffffffffffff8111156200019057600080fd5b6200019e8482850162000106565b91505092915050565b6000604051905081810181811067ffffffffffffffff82111715620001cb57600080fd5b8060405250919050565b600067ffffffffffffffff821115620001ed57600080fd5b601f19601f8301169050602081019050919050565b60005b838110156200022257808201518184015260208101905062000205565b8381111562000232576000848401525b50505050565b61146280620002486000396000f3fe60806040526004361061009c5760003560e01c80636352211e116100645780636352211e1461015d57806370a082311461019a578063a22cb465146101d7578063b88d4fde14610200578063c87b56dd1461021c578063e985e9c5146102595761009c565b8063081812fc146100a1578063095ea7b3146100de57806323b872dd146100fa578063261220a31461011657806342842e0e14610141575b600080fd5b3480156100ad57600080fd5b506100c860048036036100c39190810190610e64565b610296565b6040516100d59190611127565b60405180910390f35b6100f860048036036100f39190810190610dff565b6102d3565b005b610114600480360361010f9190810190610cf4565b61042b565b005b34801561012257600080fd5b5061012b61043b565b60405161013891906111a9565b60405180910390f35b61015b60048036036101569190810190610cf4565b6104d9565b005b34801561016957600080fd5b50610184600480360361017f9190810190610e64565b6104f9565b6040516101919190611127565b60405180910390f35b3480156101a657600080fd5b506101c160048036036101bc9190810190610c8f565b610536565b6040516101ce919061124d565b60405180910390f35b3480156101e357600080fd5b506101fe60048036036101f99190810190610dc3565b61057f565b005b61021a60048036036102159190810190610d43565b61067c565b005b34801561022857600080fd5b50610243600480360361023e9190810190610e64565b6106d3565b60405161025091906111cb565b60405180910390f35b34801561026557600080fd5b50610280600480360361027b9190810190610cb8565b6106ff565b60405161028d919061118e565b60405180910390f35b60006004600083815260200190815260200160002060009054906101000a900473ffffffffffffffffffffffffffffffffffffffff169050919050565b60006003600083815260200190815260200160002060009054906101000a900473ffffffffffffffffffffffffffffffffffffffff1690508073ffffffffffffffffffffffffffffffffffffffff163373ffffffffffffffffffffffffffffffffffffffff1614610379576040517f08c379a00000000000000000000000000000000000000000000000000000000081526004016103709061122d565b60405180910390fd5b826004600084815260200190815260200160002060006101000a81548173ffffffffffffffffffffffffffffffffffffffff021916908373ffffffffffffffffffffffffffffffffffffffff160217905550818373ffffffffffffffffffffffffffffffffffffffff168273ffffffffffffffffffffffffffffffffffffffff167f8c5be1e5ebec7d5bd14f71427d1e84f3dd0314c0f7b2291e5b200ac8c7c3b92560405160405180910390a4505050565b610436838383610793565b505050565b60008054600181600116156101000203166002900480601f0160208091040260200160405190810160405280929190818152602001828054600181600116156101000203166002900480156104d15780601f106104a6576101008083540402835291602001916104d1565b820191906000526020600020905b8154815290600101906020018083116104b457829003601f168201915b505050505081565b6104f483838360405180602001604052806000815250610a8b565b505050565b60006003600083815260200190815260200160002060009054906101000a900473ffffffffffffffffffffffffffffffffffffffff169050919050565b6000600260008373ffffffffffffffffffffffffffffffffffffffff1673ffffffffffffffffffffffffffffffffffffffff168152602001908152602001600020549050919050565b80600560003373ffffffffffffffffffffffffffffffffffffffff1673ffffffffffffffffffffffffffffffffffffffff16815260200190815260200160002060008473ffffffffffffffffffffffffffffffffffffffff1673ffffffffffffffffffffffffffffffffffffffff16815260200190815260200160002060006101000a81548160ff0219169083151502179055508173ffffffffffffffffffffffffffffffffffffffff163373ffffffffffffffffffffffffffffffffffffffff167f17307eab39ab6107e8899845ad3d59bd9653f200f220920489ca2b5937696c3183604051610670919061118e565b60405180910390a35050565b6106cc85858585858080601f016020809104026020016040519081016040528093929190818152602001838380828437600081840152601f19601f82011690508083019250505050505050610a8b565b5050505050565b60606000826040516020016106e99291906110ff565b6040516020818303038152906040529050919050565b6000600560008473ffffffffffffffffffffffffffffffffffffffff1673ffffffffffffffffffffffffffffffffffffffff16815260200190815260200160002060008373ffffffffffffffffffffffffffffffffffffffff1673ffffffffffffffffffffffffffffffffffffffff16815260200190815260200160002060009054906101000a900460ff16905092915050565b8060006003600083815260200190815260200160002060009054906101000a900473ffffffffffffffffffffffffffffffffffffffff1690503373ffffffffffffffffffffffffffffffffffffffff168173ffffffffffffffffffffffffffffffffffffffff16148061086457503373ffffffffffffffffffffffffffffffffffffffff166004600084815260200190815260200160002060009054906101000a900473ffffffffffffffffffffffffffffffffffffffff1673ffffffffffffffffffffffffffffffffffffffff16145b806108fc575060011515600560008373ffffffffffffffffffffffffffffffffffffffff1673ffffffffffffffffffffffffffffffffffffffff16815260200190815260200160002060003373ffffffffffffffffffffffffffffffffffffffff1673ffffffffffffffffffffffffffffffffffffffff16815260200190815260200160002060009054906101000a900460ff161515145b61093b576040517f08c379a0000000000000000000000000000000000000000000000000000000008152600401610932906111ed565b60405180910390fd5b6001600260008773ffffffffffffffffffffffffffffffffffffffff1673ffffffffffffffffffffffffffffffffffffffff168152602001908152602001600020600082825403925050819055506001600260008673ffffffffffffffffffffffffffffffffffffffff1673ffffffffffffffffffffffffffffffffffffffff16815260200190815260200160002060008282540192505081905550836003600085815260200190815260200160002060006101000a81548173ffffffffffffffffffffffffffffffffffffffff021916908373ffffffffffffffffffffffffffffffffffffffff160217905550828473ffffffffffffffffffffffffffffffffffffffff168673ffffffffffffffffffffffffffffffffffffffff167fddf252ad1be2c89b69c2b068fc378daa952ba7f163c4a11628f55a4df523b3ef60405160405180910390a45050505050565b610a96848484610793565b610ab58373ffffffffffffffffffffffffffffffffffffffff16610bde565b15610bd85760008373ffffffffffffffffffffffffffffffffffffffff1663150b7a02338786866040518563ffffffff1660e01b8152600401610afb9493929190611142565b602060405180830381600087803b158015610b1557600080fd5b505af1158015610b29573d6000803e3d6000fd5b505050506040513d601f19601f82011682018060405250610b4d9190810190610e3b565b905063150b7a0260e01b7bffffffffffffffffffffffffffffffffffffffffffffffffffffffff1916817bffffffffffffffffffffffffffffffffffffffffffffffffffffffff191614610bd6576040517f08c379a0000000000000000000000000000000000000000000000000000000008152600401610bcd9061120d565b60405180910390fd5b505b50505050565b600080823b905060008111915050919050565b600081359050610c00816113c3565b92915050565b600081359050610c15816113da565b92915050565b600081519050610c2a816113f1565b92915050565b60008083601f840112610c4257600080fd5b8235905067ffffffffffffffff811115610c5b57600080fd5b602083019150836001820283011115610c7357600080fd5b9250929050565b600081359050610c8981611408565b92915050565b600060208284031215610ca157600080fd5b6000610caf84828501610bf1565b91505092915050565b60008060408385031215610ccb57600080fd5b6000610cd985828601610bf1565b9250506020610cea85828601610bf1565b9150509250929050565b600080600060608486031215610d0957600080fd5b6000610d1786828701610bf1565b9350506020610d2886828701610bf1565b9250506040610d3986828701610c7a565b9150509250925092565b600080600080600060808688031215610d5b57600080fd5b6000610d6988828901610bf1565b9550506020610d7a88828901610bf1565b9450506040610d8b88828901610c7a565b935050606086013567ffffffffffffffff811115610da857600080fd5b610db488828901610c30565b92509250509295509295909350565b60008060408385031215610dd657600080fd5b6000610de485828601610bf1565b9250506020610df585828601610c06565b9150509250929050565b60008060408385031215610e1257600080fd5b6000610e2085828601610bf1565b9250506020610e3185828601610c7a565b9150509250929050565b600060208284031215610e4d57600080fd5b6000610e5b84828501610c1b565b91505092915050565b600060208284031215610e7657600080fd5b6000610e8484828501610c7a565b91505092915050565b610e968161133f565b82525050565b610ea5816112cb565b82525050565b610eb4816112dd565b82525050565b6000610ec58261127d565b610ecf818561129e565b9350610edf818560208601611375565b610ee8816113b2565b840191505092915050565b6000610efe82611293565b610f0881856112af565b9350610f18818560208601611375565b610f21816113b2565b840191505092915050565b6000610f3782611288565b610f4181856112af565b9350610f51818560208601611375565b610f5a816113b2565b840191505092915050565b600081546001811660008114610f825760018114610fa757610feb565b607f6002830416610f9381876112c0565b955060ff1983168652808601935050610feb565b60028204610fb581876112c0565b9550610fc085611268565b60005b82811015610fe257815481890152600182019150602081019050610fc3565b82880195505050505b505092915050565b60006110006017836112af565b91507f5472616e73666572206e6f7420617574686f72697a65640000000000000000006000830152602082019050919050565b60006110406028836112af565b91507f726563697069656e742053432063616e6e6f742068616e646c6520455243373260008301527f3120746f6b656e730000000000000000000000000000000000000000000000006020830152604082019050919050565b60006110a6600e836112af565b91507f4e6f7420617574686f72697a65640000000000000000000000000000000000006000830152602082019050919050565b6110e281611335565b82525050565b6110f96110f482611335565b6113a8565b82525050565b600061110b8285610f65565b915061111782846110e8565b6020820191508190509392505050565b600060208201905061113c6000830184610e9c565b92915050565b60006080820190506111576000830187610e8d565b6111646020830186610e9c565b61117160408301856110d9565b81810360608301526111838184610eba565b905095945050505050565b60006020820190506111a36000830184610eab565b92915050565b600060208201905081810360008301526111c38184610f2c565b905092915050565b600060208201905081810360008301526111e58184610ef3565b905092915050565b6000602082019050818103600083015261120681610ff3565b9050919050565b6000602082019050818103600083015261122681611033565b9050919050565b6000602082019050818103600083015261124681611099565b9050919050565b600060208201905061126260008301846110d9565b92915050565b60008190508160005260206000209050919050565b600081519050919050565b600081519050919050565b600081519050919050565b600082825260208201905092915050565b600082825260208201905092915050565b600081905092915050565b60006112d682611315565b9050919050565b60008115159050919050565b60007fffffffff0000000000000000000000000000000000000000000000000000000082169050919050565b600073ffffffffffffffffffffffffffffffffffffffff82169050919050565b6000819050919050565b600061134a82611351565b9050919050565b600061135c82611363565b9050919050565b600061136e82611315565b9050919050565b60005b83811015611393578082015181840152602081019050611378565b838111156113a2576000848401525b50505050565b6000819050919050565b6000601f19601f8301169050919050565b6113cc816112cb565b81146113d757600080fd5b50565b6113e3816112dd565b81146113ee57600080fd5b50565b6113fa816112e9565b811461140557600080fd5b50565b61141181611335565b811461141c57600080fd5b5056fea365627a7a7231582074870948ed26b16930f13d760c2218c6e3f071417f954700b1e38402f91d073f6c6578706572696d656e74616cf564736f6c63430005110040",
  "source": "// SPDX-License-Identifier: MIT\npragma solidity >=0.5.0 <0.6.0;\npragma experimental ABIEncoderV2;\n\nlibrary AddressUtils {\n\n  function isContract( address _addr ) internal view returns (bool addressCheck) {\n    uint256 size;\n    assembly { size := extcodesize(_addr) }\n    addressCheck = size > 0;\n  }\n\n}\n\ninterface ERC721TokenReceiver {\n    function onERC721Received(address _operator, address _from, uint256 _tokenId, bytes calldata _data) external returns(bytes4);\n}\n\ninterface ERC721 {\n    event Transfer(address indexed _from, address indexed _to, uint256 indexed _tokenId);\n    event Approval(address indexed _owner, address indexed _approved, uint256 indexed _tokenId);\n    event ApprovalForAll(address indexed _owner, address indexed _operator, bool _approved);\n\n    function balanceOf(address _owner) external view returns (uint256);\n    function ownerOf(uint256 _tokenId) external view returns (address);\n    function safeTransferFrom(address _from, address _to, uint256 _tokenId, bytes calldata data) external payable;\n    function safeTransferFrom(address _from, address _to, uint256 _tokenId) external payable;\n    function transferFrom(address _from, address _to, uint256 _tokenId) external payable;\n    function approve(address _approved, uint256 _tokenId) external payable;\n    function setApprovalForAll(address _operator, bool _approved) external;\n    function getApproved(uint256 _tokenId) external view returns (address);\n    function isApprovedForAll(address _owner, address _operator) external view returns (bool);\n}\n\ncontract ERC721Token is ERC721 {\n\n    using AddressUtils for address;\n\n    string public tokenURIBase;\n    bytes4 internal constant MAGIC_ON_ERC721_RECEIVED = 0x150b7a02;\n\n    mapping(uint => string) private tokenURIs;\n    mapping(address => uint) private ownerToTokenCount;\n    mapping(uint => address) private idToOwner;\n    mapping(uint => address) private idToApproved;\n    mapping(address => mapping(address => bool)) private ownerToOperators;\n\n    modifier canTransfer(uint _tokenId) {\n        address owner = idToOwner[_tokenId];\n        require(owner == msg.sender \n            || idToApproved[_tokenId] == msg.sender\n            || ownerToOperators[owner][msg.sender] == true, 'Transfer not authorized');\n        _;\n    }\n    \n    constructor(string memory _tokenURIBase) public {\n      tokenURIBase = _tokenURIBase;\n    }\n\n    function tokenURI(uint _tokenId) external view returns(string memory) {\n      return string(abi.encodePacked(tokenURIBase, _tokenId));\n    }\n    \n    function balanceOf(address _owner) external view returns(uint) {\n        return ownerToTokenCount[_owner];\n    }\n    \n    function ownerOf(uint256 _tokenId) public view returns (address) {\n        return idToOwner[_tokenId];\n    }\n    \n    function safeTransferFrom(address _from, address _to, uint _tokenId, bytes calldata data) external payable {\n        _safeTransferFrom(_from, _to, _tokenId, data);\n    }\n\n    function safeTransferFrom(address _from, address _to, uint _tokenId) external payable {\n        _safeTransferFrom(_from, _to, _tokenId, \"\"); \n    }\n    \n    function transferFrom(address _from, address _to, uint _tokenId) external payable {\n        _transfer(_from, _to, _tokenId);\n    }\n    \n    function approve(address _approved, uint _tokenId) external payable {\n        address owner = idToOwner[_tokenId];\n        require(msg.sender == owner, 'Not authorized');\n        idToApproved[_tokenId] = _approved;\n        emit Approval(owner, _approved, _tokenId);\n    }\n    \n    function setApprovalForAll(address _operator, bool _approved) external {\n        ownerToOperators[msg.sender][_operator] = _approved;\n        emit ApprovalForAll(msg.sender, _operator, _approved);\n    }\n    \n    function getApproved(uint _tokenId) external view returns (address) {\n        return idToApproved[_tokenId];   \n    }\n    \n    function isApprovedForAll(address _owner, address _operator) external view returns (bool) {\n        return ownerToOperators[_owner][_operator];\n    }\n    \n    function _safeTransferFrom(address _from, address _to, uint _tokenId, bytes memory data) internal {\n\n       _transfer(_from, _to, _tokenId);\n        \n        if(_to.isContract()) {\n            bytes4 retval = ERC721TokenReceiver(_to).onERC721Received(msg.sender, _from, _tokenId, data);\n            require(retval == MAGIC_ON_ERC721_RECEIVED, 'recipient SC cannot handle ERC721 tokens');\n        }\n    }\n    \n    function _transfer(address _from, address _to, uint _tokenId) internal canTransfer(_tokenId) {\n        ownerToTokenCount[_from] -= 1; \n        ownerToTokenCount[_to] += 1;\n        idToOwner[_tokenId] = _to;\n        emit Transfer(_from, _to, _tokenId);\n    }\n\n    function _mint(address _owner, uint _tokenId) internal {\n        require(idToOwner[_tokenId] == address(0), 'This token already exist..');\n        idToOwner[_tokenId] = _owner;\n        ownerToTokenCount[_owner] += 1;\n        emit Transfer(address(0), _owner, _tokenId);\n    }\n    \n}\n",
  "sourcePath": "/home/dora/1. Kassavin/2. DApps/13_Cryptokitties/contracts/ERC721Token.sol",
  "compiler": {
    "name": "solc",
    "version": "0.5.17+commit.d19bba13.Emscripten.clang"
  },
  "schemaVersion": "3.2.2",
  "updatedAt": "2020-07-21T09:40:11.360Z",
  "devdoc": {
    "methods": {}
  },
  "userdoc": {
    "methods": {}
  }
}