{
  "contractName": "Migrations",
  "abi": [
    {
      "inputs": [],
      "payable": false,
      "stateMutability": "nonpayable",
      "type": "constructor"
    },
    {
      "constant": true,
      "inputs": [],
      "name": "last_completed_migration",
      "outputs": [
        {
          "internalType": "uint256",
          "name": "",
          "type": "uint256"
        }
      ],
      "payable": false,
      "stateMutability": "view",
      "type": "function"
    },
    {
      "constant": true,
      "inputs": [],
      "name": "owner",
      "outputs": [
        {
          "internalType": "address",
          "name": "",
          "type": "address"
        }
      ],
      "payable": false,
      "stateMutability": "view",
      "type": "function"
    },
    {
      "constant": false,
      "inputs": [
        {
          "internalType": "uint256",
          "name": "completed",
          "type": "uint256"
        }
      ],
      "name": "setCompleted",
      "outputs": [],
      "payable": false,
      "stateMutability": "nonpayable",
      "type": "function"
    },
    {
      "constant": false,
      "inputs": [
        {
          "internalType": "address",
          "name": "new_address",
          "type": "address"
        }
      ],
      "name": "upgrade",
      "outputs": [],
      "payable": false,
      "stateMutability": "nonpayable",
      "type": "function"
    }
  ],
  "bytecode": "0x608060405234801561001057600080fd5b50336000806101000a81548173ffffffffffffffffffffffffffffffffffffffff021916908373ffffffffffffffffffffffffffffffffffffffff160217905550610399806100606000396000f3fe608060405234801561001057600080fd5b506004361061004c5760003560e01c80630900f01014610051578063445df0ac1461006d5780638da5cb5b1461008b578063fdacd576146100a9575b600080fd5b61006b60048036036100669190810190610246565b6100c5565b005b610075610191565b60405161008291906102d1565b60405180910390f35b610093610197565b6040516100a091906102b6565b60405180910390f35b6100c360048036036100be919081019061026f565b6101bc565b005b6000809054906101000a900473ffffffffffffffffffffffffffffffffffffffff1673ffffffffffffffffffffffffffffffffffffffff163373ffffffffffffffffffffffffffffffffffffffff16141561018e5760008190508073ffffffffffffffffffffffffffffffffffffffff1663fdacd5766001546040518263ffffffff1660e01b815260040161015a91906102d1565b600060405180830381600087803b15801561017457600080fd5b505af1158015610188573d6000803e3d6000fd5b50505050505b50565b60015481565b6000809054906101000a900473ffffffffffffffffffffffffffffffffffffffff1681565b6000809054906101000a900473ffffffffffffffffffffffffffffffffffffffff1673ffffffffffffffffffffffffffffffffffffffff163373ffffffffffffffffffffffffffffffffffffffff16141561021957806001819055505b50565b60008135905061022b81610328565b92915050565b6000813590506102408161033f565b92915050565b60006020828403121561025857600080fd5b60006102668482850161021c565b91505092915050565b60006020828403121561028157600080fd5b600061028f84828501610231565b91505092915050565b6102a1816102ec565b82525050565b6102b08161031e565b82525050565b60006020820190506102cb6000830184610298565b92915050565b60006020820190506102e660008301846102a7565b92915050565b60006102f7826102fe565b9050919050565b600073ffffffffffffffffffffffffffffffffffffffff82169050919050565b6000819050919050565b610331816102ec565b811461033c57600080fd5b50565b6103488161031e565b811461035357600080fd5b5056fea365627a7a723158209cfe0ed0d3753c02ee2d611c4371833f621574765e34cca080e0b9abece8ef5b6c6578706572696d656e74616cf564736f6c63430005110040",
  "source": "// SPDX-License-Identifier: MIT\npragma solidity >=0.5.0 <0.6.0;\npragma experimental ABIEncoderV2;\n\ncontract Migrations {\n\n    address public owner;\n    uint public last_completed_migration;\n\n    constructor() public {\n        owner = msg.sender;\n    }\n\n    modifier restricted() {\n        if (msg.sender == owner) _;\n    }\n\n    function setCompleted(uint completed) public restricted {\n        last_completed_migration = completed;\n    }\n\n    function upgrade(address new_address) public restricted {\n        Migrations upgraded = Migrations(new_address);\n        upgraded.setCompleted(last_completed_migration);\n    }\n    \n}\n",
  "sourcePath": "/home/dora/1. Kassavin/2. DApps/13_Cryptokitties/contracts/Migrations.sol",
  "compiler": {
    "name": "solc",
    "version": "0.5.17+commit.d19bba13.Emscripten.clang"
  },
  "schemaVersion": "3.2.2",
  "updatedAt": "2020-07-21T09:42:57.620Z",
  "networkType": "ethereum",
  "devdoc": {
    "methods": {}
  },
  "userdoc": {
    "methods": {}
  }
}