{
  "contractName": "ComplexStorage",
  "abi": [
    {
      "inputs": [],
      "payable": false,
      "stateMutability": "nonpayable",
      "type": "constructor"
    },
    {
      "constant": true,
      "inputs": [],
      "name": "constuint",
      "outputs": [
        {
          "internalType": "uint256",
          "name": "",
          "type": "uint256"
        }
      ],
      "payable": false,
      "stateMutability": "view",
      "type": "function"
    },
    {
      "constant": true,
      "inputs": [
        {
          "internalType": "uint256",
          "name": "",
          "type": "uint256"
        }
      ],
      "name": "deviceDataArray",
      "outputs": [
        {
          "internalType": "string",
          "name": "deviceBrand",
          "type": "string"
        },
        {
          "internalType": "string",
          "name": "deviceYear",
          "type": "string"
        },
        {
          "internalType": "string",
          "name": "batteryWearLevel",
          "type": "string"
        }
      ],
      "payable": false,
      "stateMutability": "view",
      "type": "function"
    },
    {
      "constant": true,
      "inputs": [],
      "name": "investmentsDeadlineTimeStamp",
      "outputs": [
        {
          "internalType": "uint32",
          "name": "",
          "type": "uint32"
        }
      ],
      "payable": false,
      "stateMutability": "view",
      "type": "function"
    },
    {
      "constant": true,
      "inputs": [],
      "name": "investmentsLimit",
      "outputs": [
        {
          "internalType": "uint128",
          "name": "",
          "type": "uint128"
        }
      ],
      "payable": false,
      "stateMutability": "view",
      "type": "function"
    },
    {
      "constant": true,
      "inputs": [],
      "name": "singleDD",
      "outputs": [
        {
          "internalType": "string",
          "name": "deviceBrand",
          "type": "string"
        },
        {
          "internalType": "string",
          "name": "deviceYear",
          "type": "string"
        },
        {
          "internalType": "string",
          "name": "batteryWearLevel",
          "type": "string"
        }
      ],
      "payable": false,
      "stateMutability": "view",
      "type": "function"
    },
    {
      "constant": true,
      "inputs": [],
      "name": "storeduint1",
      "outputs": [
        {
          "internalType": "uint256",
          "name": "",
          "type": "uint256"
        }
      ],
      "payable": false,
      "stateMutability": "view",
      "type": "function"
    },
    {
      "constant": true,
      "inputs": [],
      "name": "string1",
      "outputs": [
        {
          "internalType": "bytes16",
          "name": "",
          "type": "bytes16"
        }
      ],
      "payable": false,
      "stateMutability": "view",
      "type": "function"
    },
    {
      "constant": true,
      "inputs": [],
      "name": "string2",
      "outputs": [
        {
          "internalType": "bytes32",
          "name": "",
          "type": "bytes32"
        }
      ],
      "payable": false,
      "stateMutability": "view",
      "type": "function"
    },
    {
      "constant": true,
      "inputs": [],
      "name": "string3",
      "outputs": [
        {
          "internalType": "string",
          "name": "",
          "type": "string"
        }
      ],
      "payable": false,
      "stateMutability": "view",
      "type": "function"
    },
    {
      "constant": true,
      "inputs": [
        {
          "internalType": "uint256",
          "name": "",
          "type": "uint256"
        }
      ],
      "name": "uintarray",
      "outputs": [
        {
          "internalType": "uint256",
          "name": "",
          "type": "uint256"
        }
      ],
      "payable": false,
      "stateMutability": "view",
      "type": "function"
    }
  ],
  "bytecode": "0x6080604052600f60005561429f600160006101000a8154816fffffffffffffffffffffffffffffffff02191690836fffffffffffffffffffffffffffffffff16021790555042600160106101000a81548163ffffffff021916908363ffffffff1602179055507f7465737431000000000000000000000000000000000000000000000000000000600260006101000a8154816fffffffffffffffffffffffffffffffff021916908360801c02179055507f74657374313233360000000000000000000000000000000000000000000000006003556040518060400160405280601581526020017f6c65747320737472696e6720736f6d657468696e6700000000000000000000008152506004908051906020019062000120929190620007f7565b503480156200012e57600080fd5b50600073bccc714d56bc0da0fd33d96d2a87b680dd6d0df69050600073aee905fdd3ed851e48d22059575b9f4245a82b0490506058600560008473ffffffffffffffffffffffffffffffffffffffff1673ffffffffffffffffffffffffffffffffffffffff168152602001908152602001600020819055506063600560008373ffffffffffffffffffffffffffffffffffffffff1673ffffffffffffffffffffffffffffffffffffffff1681526020019081526020016000208190555060405180606001604052806040518060400160405280600b81526020017f6465766963654272616e6400000000000000000000000000000000000000000081525081526020016040518060400160405280600a81526020017f646576696365596561720000000000000000000000000000000000000000000081525081526020016040518060400160405280600981526020017f776561724c6576656c0000000000000000000000000000000000000000000000815250815250600660008473ffffffffffffffffffffffffffffffffffffffff1673ffffffffffffffffffffffffffffffffffffffff1681526020019081526020016000206000820151816000019080519060200190620003029291906200087e565b506020820151816001019080519060200190620003219291906200087e565b506040820151816002019080519060200190620003409291906200087e565b5090505060405180606001604052806040518060400160405280600c81526020017f6465766963654272616e6432000000000000000000000000000000000000000081525081526020016040518060400160405280600b81526020017f646576696365596561723200000000000000000000000000000000000000000081525081526020016040518060400160405280600a81526020017f776561724c6576656c3200000000000000000000000000000000000000000000815250815250600660008373ffffffffffffffffffffffffffffffffffffffff1673ffffffffffffffffffffffffffffffffffffffff16815260200190815260200160002060008201518160000190805190602001906200045b9291906200087e565b5060208201518160010190805190602001906200047a9291906200087e565b506040820151816002019080519060200190620004999291906200087e565b5090505060405180606001604052806040518060400160405280600c81526020017f6465766963654272616e6433000000000000000000000000000000000000000081525081526020016040518060400160405280600b81526020017f646576696365596561723300000000000000000000000000000000000000000081525081526020016040518060400160405280600a81526020017f776561724c6576656c330000000000000000000000000000000000000000000081525081525060096000820151816000019080519060200190620005779291906200087e565b506020820151816001019080519060200190620005969291906200087e565b506040820151816002019080519060200190620005b59291906200087e565b509050506007611f409080600181540180825580915050906001820390600052602060002001600090919290919091505550600761232890806001815401808255809150509060018203906000526020600020016000909192909190915055506008600660008473ffffffffffffffffffffffffffffffffffffffff1673ffffffffffffffffffffffffffffffffffffffff1681526020019081526020016000209080600181540180825580915050906001820390600052602060002090600302016000909192909190915060008201816000019080546001816001161561010002031660029004620006aa92919062000905565b5060018201816001019080546001816001161561010002031660029004620006d492919062000905565b5060028201816002019080546001816001161561010002031660029004620006fe92919062000905565b505050506008600660008373ffffffffffffffffffffffffffffffffffffffff1673ffffffffffffffffffffffffffffffffffffffff16815260200190815260200160002090806001815401808255809150509060018203906000526020600020906003020160009091929091909150600082018160000190805460018160011615610100020316600290046200079792919062000905565b5060018201816001019080546001816001161561010002031660029004620007c192919062000905565b5060028201816002019080546001816001161561010002031660029004620007eb92919062000905565b505050505050620009bb565b828054600181600116156101000203166002900490600052602060002090601f016020900481019282601f106200083a57805160ff19168380011785556200086b565b828001600101855582156200086b579182015b828111156200086a5782518255916020019190600101906200084d565b5b5090506200087a919062000993565b5090565b828054600181600116156101000203166002900490600052602060002090601f016020900481019282601f10620008c157805160ff1916838001178555620008f2565b82800160010185558215620008f2579182015b82811115620008f1578251825591602001919060010190620008d4565b5b50905062000901919062000993565b5090565b828054600181600116156101000203166002900490600052602060002090601f016020900481019282601f1062000940578054855562000980565b828001600101855582156200098057600052602060002091601f016020900482015b828111156200097f57825482559160010191906001019062000962565b5b5090506200098f919062000993565b5090565b620009b891905b80821115620009b45760008160009055506001016200099a565b5090565b90565b6109ce80620009cb6000396000f3fe608060405234801561001057600080fd5b506004361061009e5760003560e01c80639275586011610066578063927558601461016157806397ba784f1461017f578063a7b2cfca1461019d578063df4fddf5146101bb578063eec65f29146101d95761009e565b80630ca0aa79146100a357806311f9c74d146100c157806328a20b5e146100df5780636c0c1bcf146100ff57806384eeda561461012f575b600080fd5b6100ab6101f7565b6040516100b891906107ce565b60405180910390f35b6100c96101fd565b6040516100d69190610872565b60405180910390f35b6100e7610203565b6040516100f69392919061080b565b60405180910390f35b61011960048036036101149190810190610706565b6103e3565b6040516101269190610872565b60405180910390f35b61014960048036036101449190810190610706565b610404565b6040516101589392919061080b565b60405180910390f35b610169610603565b60405161017691906107e9565b60405180910390f35b6101876106a1565b6040516101949190610872565b60405180910390f35b6101a56106a6565b6040516101b291906107b3565b60405180910390f35b6101c36106b9565b6040516101d0919061088d565b60405180910390f35b6101e16106cf565b6040516101ee9190610857565b60405180910390f35b60035481565b60005481565b6009806000018054600181600116156101000203166002900480601f01602080910402602001604051908101604052809291908181526020018280546001816001161561010002031660029004801561029d5780601f106102725761010080835404028352916020019161029d565b820191906000526020600020905b81548152906001019060200180831161028057829003601f168201915b505050505090806001018054600181600116156101000203166002900480601f01602080910402602001604051908101604052809291908181526020018280546001816001161561010002031660029004801561033b5780601f106103105761010080835404028352916020019161033b565b820191906000526020600020905b81548152906001019060200180831161031e57829003601f168201915b505050505090806002018054600181600116156101000203166002900480601f0160208091040260200160405190810160405280929190818152602001828054600181600116156101000203166002900480156103d95780601f106103ae576101008083540402835291602001916103d9565b820191906000526020600020905b8154815290600101906020018083116103bc57829003601f168201915b5050505050905083565b600781815481106103f057fe5b906000526020600020016000915090505481565b6008818154811061041157fe5b9060005260206000209060030201600091509050806000018054600181600116156101000203166002900480601f0160208091040260200160405190810160405280929190818152602001828054600181600116156101000203166002900480156104bd5780601f10610492576101008083540402835291602001916104bd565b820191906000526020600020905b8154815290600101906020018083116104a057829003601f168201915b505050505090806001018054600181600116156101000203166002900480601f01602080910402602001604051908101604052809291908181526020018280546001816001161561010002031660029004801561055b5780601f106105305761010080835404028352916020019161055b565b820191906000526020600020905b81548152906001019060200180831161053e57829003601f168201915b505050505090806002018054600181600116156101000203166002900480601f0160208091040260200160405190810160405280929190818152602001828054600181600116156101000203166002900480156105f95780601f106105ce576101008083540402835291602001916105f9565b820191906000526020600020905b8154815290600101906020018083116105dc57829003601f168201915b5050505050905083565b60048054600181600116156101000203166002900480601f0160208091040260200160405190810160405280929190818152602001828054600181600116156101000203166002900480156106995780601f1061066e57610100808354040283529160200191610699565b820191906000526020600020905b81548152906001019060200180831161067c57829003601f168201915b505050505081565b601081565b600260009054906101000a900460801b81565b600160109054906101000a900463ffffffff1681565b600160009054906101000a90046fffffffffffffffffffffffffffffffff1681565b60008135905061070081610974565b92915050565b60006020828403121561071857600080fd5b6000610726848285016106f1565b91505092915050565b610738816108c4565b82525050565b610747816108f0565b82525050565b6000610758826108a8565b61076281856108b3565b9350610772818560208601610930565b61077b81610963565b840191505092915050565b61078f816108fa565b82525050565b61079e81610916565b82525050565b6107ad81610920565b82525050565b60006020820190506107c8600083018461072f565b92915050565b60006020820190506107e3600083018461073e565b92915050565b60006020820190508181036000830152610803818461074d565b905092915050565b60006060820190508181036000830152610825818661074d565b90508181036020830152610839818561074d565b9050818103604083015261084d818461074d565b9050949350505050565b600060208201905061086c6000830184610786565b92915050565b60006020820190506108876000830184610795565b92915050565b60006020820190506108a260008301846107a4565b92915050565b600081519050919050565b600082825260208201905092915050565b60007fffffffffffffffffffffffffffffffff0000000000000000000000000000000082169050919050565b6000819050919050565b60006fffffffffffffffffffffffffffffffff82169050919050565b6000819050919050565b600063ffffffff82169050919050565b60005b8381101561094e578082015181840152602081019050610933565b8381111561095d576000848401525b50505050565b6000601f19601f8301169050919050565b61097d81610916565b811461098857600080fd5b5056fea365627a7a723158200ccd7e0a68d46d72bb9ba86bbf357ffd37e134f265679034c8d4f2616e5e41b66c6578706572696d656e74616cf564736f6c63430005110040",
  "source": "// SPDX-License-Identifier: MIT\npragma solidity >=0.5.0 <0.6.0;\npragma experimental ABIEncoderV2;\n\ncontract ComplexStorage {\n    uint public storeduint1 = 15;\n    uint public constant constuint = 16;\n    uint128 public investmentsLimit = 17055;\n    uint32 public investmentsDeadlineTimeStamp = uint32(now);\n\n    bytes16 public string1 = \"test1\";\n    bytes32 public string2 = \"test1236\";\n    string public string3 = \"lets string something\";\n\n    mapping (address => uint) uints1;\n    mapping (address => DeviceData) structs1;\n\n    uint[] public uintarray;\n    DeviceData[] public deviceDataArray;\n    DeviceData public singleDD;\n\n    struct DeviceData {\n        string deviceBrand;\n        string deviceYear;\n        string batteryWearLevel;\n    }\n\n    constructor() public {\n        address address1 = 0xbCcc714d56bc0da0fd33d96d2a87b680dD6D0DF6;\n        address address2 = 0xaee905FdD3ED851e48d22059575b9F4245A82B04;\n\n        uints1[address1] = 88;\n        uints1[address2] = 99;\n\n        structs1[address1] = DeviceData(\"deviceBrand\", \"deviceYear\", \"wearLevel\");\n        structs1[address2] = DeviceData(\"deviceBrand2\", \"deviceYear2\", \"wearLevel2\");\n        singleDD = DeviceData(\"deviceBrand3\", \"deviceYear3\", \"wearLevel3\");\n\n        uintarray.push(8000);\n        uintarray.push(9000);\n\n        deviceDataArray.push(structs1[address1]);\n        deviceDataArray.push(structs1[address2]);\n    }\n}\n",
  "sourcePath": "/home/dora/1. Kassavin/2. DApps/7_Drizzle_Event/contracts/ComplexStorage.sol",
  "compiler": {
    "name": "solc",
    "version": "0.5.17+commit.d19bba13.Emscripten.clang"
  },
  "schemaVersion": "3.2.2",
  "updatedAt": "2020-07-15T11:33:10.758Z",
  "networkType": "ethereum",
  "devdoc": {
    "methods": {}
  },
  "userdoc": {
    "methods": {}
  }
}