{
  "contractName": "ERC721Token",
  "abi": [
    {
      "inputs": [],
      "payable": false,
      "stateMutability": "nonpayable",
      "type": "constructor"
    },
    {
      "anonymous": false,
      "inputs": [
        {
          "indexed": true,
          "internalType": "address",
          "name": "_owner",
          "type": "address"
        },
        {
          "indexed": true,
          "internalType": "address",
          "name": "_approved",
          "type": "address"
        },
        {
          "indexed": true,
          "internalType": "uint256",
          "name": "_tokenId",
          "type": "uint256"
        }
      ],
      "name": "Approval",
      "type": "event"
    },
    {
      "anonymous": false,
      "inputs": [
        {
          "indexed": true,
          "internalType": "address",
          "name": "_owner",
          "type": "address"
        },
        {
          "indexed": true,
          "internalType": "address",
          "name": "_operator",
          "type": "address"
        },
        {
          "indexed": false,
          "internalType": "bool",
          "name": "_approved",
          "type": "bool"
        }
      ],
      "name": "ApprovalForAll",
      "type": "event"
    },
    {
      "anonymous": false,
      "inputs": [
        {
          "indexed": true,
          "internalType": "address",
          "name": "_from",
          "type": "address"
        },
        {
          "indexed": true,
          "internalType": "address",
          "name": "_to",
          "type": "address"
        },
        {
          "indexed": true,
          "internalType": "uint256",
          "name": "_tokenId",
          "type": "uint256"
        }
      ],
      "name": "Transfer",
      "type": "event"
    },
    {
      "constant": true,
      "inputs": [],
      "name": "admin",
      "outputs": [
        {
          "internalType": "address",
          "name": "",
          "type": "address"
        }
      ],
      "payable": false,
      "stateMutability": "view",
      "type": "function"
    },
    {
      "constant": true,
      "inputs": [],
      "name": "nextTokenId",
      "outputs": [
        {
          "internalType": "uint256",
          "name": "",
          "type": "uint256"
        }
      ],
      "payable": false,
      "stateMutability": "view",
      "type": "function"
    },
    {
      "constant": false,
      "inputs": [],
      "name": "mint",
      "outputs": [],
      "payable": false,
      "stateMutability": "nonpayable",
      "type": "function"
    },
    {
      "constant": true,
      "inputs": [
        {
          "internalType": "address",
          "name": "_owner",
          "type": "address"
        }
      ],
      "name": "balanceOf",
      "outputs": [
        {
          "internalType": "uint256",
          "name": "",
          "type": "uint256"
        }
      ],
      "payable": false,
      "stateMutability": "view",
      "type": "function"
    },
    {
      "constant": true,
      "inputs": [
        {
          "internalType": "uint256",
          "name": "_tokenId",
          "type": "uint256"
        }
      ],
      "name": "ownerOf",
      "outputs": [
        {
          "internalType": "address",
          "name": "",
          "type": "address"
        }
      ],
      "payable": false,
      "stateMutability": "view",
      "type": "function"
    },
    {
      "constant": false,
      "inputs": [
        {
          "internalType": "address",
          "name": "_from",
          "type": "address"
        },
        {
          "internalType": "address",
          "name": "_to",
          "type": "address"
        },
        {
          "internalType": "uint256",
          "name": "_tokenId",
          "type": "uint256"
        }
      ],
      "name": "safeTransferFrom",
      "outputs": [],
      "payable": true,
      "stateMutability": "payable",
      "type": "function"
    },
    {
      "constant": false,
      "inputs": [
        {
          "internalType": "address",
          "name": "_from",
          "type": "address"
        },
        {
          "internalType": "address",
          "name": "_to",
          "type": "address"
        },
        {
          "internalType": "uint256",
          "name": "_tokenId",
          "type": "uint256"
        },
        {
          "internalType": "bytes",
          "name": "data",
          "type": "bytes"
        }
      ],
      "name": "safeTransferFrom",
      "outputs": [],
      "payable": true,
      "stateMutability": "payable",
      "type": "function"
    },
    {
      "constant": false,
      "inputs": [
        {
          "internalType": "address",
          "name": "_from",
          "type": "address"
        },
        {
          "internalType": "address",
          "name": "_to",
          "type": "address"
        },
        {
          "internalType": "uint256",
          "name": "_tokenId",
          "type": "uint256"
        }
      ],
      "name": "transferFrom",
      "outputs": [],
      "payable": true,
      "stateMutability": "payable",
      "type": "function"
    },
    {
      "constant": false,
      "inputs": [
        {
          "internalType": "address",
          "name": "_approved",
          "type": "address"
        },
        {
          "internalType": "uint256",
          "name": "_tokenId",
          "type": "uint256"
        }
      ],
      "name": "approve",
      "outputs": [],
      "payable": true,
      "stateMutability": "payable",
      "type": "function"
    },
    {
      "constant": false,
      "inputs": [
        {
          "internalType": "address",
          "name": "_operator",
          "type": "address"
        },
        {
          "internalType": "bool",
          "name": "_approved",
          "type": "bool"
        }
      ],
      "name": "setApprovalForAll",
      "outputs": [],
      "payable": false,
      "stateMutability": "nonpayable",
      "type": "function"
    },
    {
      "constant": true,
      "inputs": [
        {
          "internalType": "uint256",
          "name": "_tokenId",
          "type": "uint256"
        }
      ],
      "name": "getApproved",
      "outputs": [
        {
          "internalType": "address",
          "name": "",
          "type": "address"
        }
      ],
      "payable": false,
      "stateMutability": "view",
      "type": "function"
    },
    {
      "constant": true,
      "inputs": [
        {
          "internalType": "address",
          "name": "_owner",
          "type": "address"
        },
        {
          "internalType": "address",
          "name": "_operator",
          "type": "address"
        }
      ],
      "name": "isApprovedForAll",
      "outputs": [
        {
          "internalType": "bool",
          "name": "",
          "type": "bool"
        }
      ],
      "payable": false,
      "stateMutability": "view",
      "type": "function"
    }
  ],
  "bytecode": "0x608060405234801561001057600080fd5b5033600160006101000a81548173ffffffffffffffffffffffffffffffffffffffff021916908373ffffffffffffffffffffffffffffffffffffffff160217905550611414806100616000396000f3fe6080604052600436106100a75760003560e01c806370a082311161006457806370a082311461019157806375794a3c146101ce578063a22cb465146101f9578063b88d4fde14610222578063e985e9c51461023e578063f851a4401461027b576100a7565b8063081812fc146100ac578063095ea7b3146100e95780631249c58b1461010557806323b872dd1461011c57806342842e0e146101385780636352211e14610154575b600080fd5b3480156100b857600080fd5b506100d360048036036100ce9190810190610f79565b6102a6565b6040516100e0919061113d565b60405180910390f35b61010360048036036100fe9190810190610f14565b6102e3565b005b34801561011157600080fd5b5061011a61043b565b005b61013660048036036101319190810190610e09565b6105de565b005b610152600480360361014d9190810190610e09565b6105ee565b005b34801561016057600080fd5b5061017b60048036036101769190810190610f79565b61060e565b604051610188919061113d565b60405180910390f35b34801561019d57600080fd5b506101b860048036036101b39190810190610da4565b61064b565b6040516101c5919061123f565b60405180910390f35b3480156101da57600080fd5b506101e3610694565b6040516101f0919061123f565b60405180910390f35b34801561020557600080fd5b50610220600480360361021b9190810190610ed8565b61069a565b005b61023c60048036036102379190810190610e58565b610797565b005b34801561024a57600080fd5b5061026560048036036102609190810190610dcd565b6107ee565b60405161027291906111a4565b60405180910390f35b34801561028757600080fd5b50610290610882565b60405161029d919061113d565b60405180910390f35b60006004600083815260200190815260200160002060009054906101000a900473ffffffffffffffffffffffffffffffffffffffff169050919050565b60006003600083815260200190815260200160002060009054906101000a900473ffffffffffffffffffffffffffffffffffffffff1690508073ffffffffffffffffffffffffffffffffffffffff163373ffffffffffffffffffffffffffffffffffffffff1614610389576040517f08c379a00000000000000000000000000000000000000000000000000000000081526004016103809061121f565b60405180910390fd5b826004600084815260200190815260200160002060006101000a81548173ffffffffffffffffffffffffffffffffffffffff021916908373ffffffffffffffffffffffffffffffffffffffff160217905550818373ffffffffffffffffffffffffffffffffffffffff168273ffffffffffffffffffffffffffffffffffffffff167f8c5be1e5ebec7d5bd14f71427d1e84f3dd0314c0f7b2291e5b200ac8c7c3b92560405160405180910390a4505050565b600160009054906101000a900473ffffffffffffffffffffffffffffffffffffffff1673ffffffffffffffffffffffffffffffffffffffff163373ffffffffffffffffffffffffffffffffffffffff16146104cb576040517f08c379a00000000000000000000000000000000000000000000000000000000081526004016104c2906111df565b60405180910390fd5b600260003373ffffffffffffffffffffffffffffffffffffffff1673ffffffffffffffffffffffffffffffffffffffff1681526020019081526020016000206000815480929190600101919050555033600360008054815260200190815260200160002060006101000a81548173ffffffffffffffffffffffffffffffffffffffff021916908373ffffffffffffffffffffffffffffffffffffffff1602179055506000543373ffffffffffffffffffffffffffffffffffffffff16600073ffffffffffffffffffffffffffffffffffffffff167fddf252ad1be2c89b69c2b068fc378daa952ba7f163c4a11628f55a4df523b3ef60405160405180910390a46000808154809291906001019190505550565b6105e98383836108a8565b505050565b61060983838360405180602001604052806000815250610ba0565b505050565b60006003600083815260200190815260200160002060009054906101000a900473ffffffffffffffffffffffffffffffffffffffff169050919050565b6000600260008373ffffffffffffffffffffffffffffffffffffffff1673ffffffffffffffffffffffffffffffffffffffff168152602001908152602001600020549050919050565b60005481565b80600560003373ffffffffffffffffffffffffffffffffffffffff1673ffffffffffffffffffffffffffffffffffffffff16815260200190815260200160002060008473ffffffffffffffffffffffffffffffffffffffff1673ffffffffffffffffffffffffffffffffffffffff16815260200190815260200160002060006101000a81548160ff0219169083151502179055508173ffffffffffffffffffffffffffffffffffffffff163373ffffffffffffffffffffffffffffffffffffffff167f17307eab39ab6107e8899845ad3d59bd9653f200f220920489ca2b5937696c318360405161078b91906111a4565b60405180910390a35050565b6107e785858585858080601f016020809104026020016040519081016040528093929190818152602001838380828437600081840152601f19601f82011690508083019250505050505050610ba0565b5050505050565b6000600560008473ffffffffffffffffffffffffffffffffffffffff1673ffffffffffffffffffffffffffffffffffffffff16815260200190815260200160002060008373ffffffffffffffffffffffffffffffffffffffff1673ffffffffffffffffffffffffffffffffffffffff16815260200190815260200160002060009054906101000a900460ff16905092915050565b600160009054906101000a900473ffffffffffffffffffffffffffffffffffffffff1681565b8060006003600083815260200190815260200160002060009054906101000a900473ffffffffffffffffffffffffffffffffffffffff1690503373ffffffffffffffffffffffffffffffffffffffff168173ffffffffffffffffffffffffffffffffffffffff16148061097957503373ffffffffffffffffffffffffffffffffffffffff166004600084815260200190815260200160002060009054906101000a900473ffffffffffffffffffffffffffffffffffffffff1673ffffffffffffffffffffffffffffffffffffffff16145b80610a11575060011515600560008373ffffffffffffffffffffffffffffffffffffffff1673ffffffffffffffffffffffffffffffffffffffff16815260200190815260200160002060003373ffffffffffffffffffffffffffffffffffffffff1673ffffffffffffffffffffffffffffffffffffffff16815260200190815260200160002060009054906101000a900460ff161515145b610a50576040517f08c379a0000000000000000000000000000000000000000000000000000000008152600401610a47906111bf565b60405180910390fd5b6001600260008773ffffffffffffffffffffffffffffffffffffffff1673ffffffffffffffffffffffffffffffffffffffff168152602001908152602001600020600082825403925050819055506001600260008673ffffffffffffffffffffffffffffffffffffffff1673ffffffffffffffffffffffffffffffffffffffff16815260200190815260200160002060008282540192505081905550836003600085815260200190815260200160002060006101000a81548173ffffffffffffffffffffffffffffffffffffffff021916908373ffffffffffffffffffffffffffffffffffffffff160217905550828473ffffffffffffffffffffffffffffffffffffffff168673ffffffffffffffffffffffffffffffffffffffff167fddf252ad1be2c89b69c2b068fc378daa952ba7f163c4a11628f55a4df523b3ef60405160405180910390a45050505050565b610bab8484846108a8565b610bca8373ffffffffffffffffffffffffffffffffffffffff16610cf3565b15610ced5760008373ffffffffffffffffffffffffffffffffffffffff1663150b7a02338786866040518563ffffffff1660e01b8152600401610c109493929190611158565b602060405180830381600087803b158015610c2a57600080fd5b505af1158015610c3e573d6000803e3d6000fd5b505050506040513d601f19601f82011682018060405250610c629190810190610f50565b905063150b7a0260e01b7bffffffffffffffffffffffffffffffffffffffffffffffffffffffff1916817bffffffffffffffffffffffffffffffffffffffffffffffffffffffff191614610ceb576040517f08c379a0000000000000000000000000000000000000000000000000000000008152600401610ce2906111ff565b60405180910390fd5b505b50505050565b600080823b905060008111915050919050565b600081359050610d1581611375565b92915050565b600081359050610d2a8161138c565b92915050565b600081519050610d3f816113a3565b92915050565b60008083601f840112610d5757600080fd5b8235905067ffffffffffffffff811115610d7057600080fd5b602083019150836001820283011115610d8857600080fd5b9250929050565b600081359050610d9e816113ba565b92915050565b600060208284031215610db657600080fd5b6000610dc484828501610d06565b91505092915050565b60008060408385031215610de057600080fd5b6000610dee85828601610d06565b9250506020610dff85828601610d06565b9150509250929050565b600080600060608486031215610e1e57600080fd5b6000610e2c86828701610d06565b9350506020610e3d86828701610d06565b9250506040610e4e86828701610d8f565b9150509250925092565b600080600080600060808688031215610e7057600080fd5b6000610e7e88828901610d06565b9550506020610e8f88828901610d06565b9450506040610ea088828901610d8f565b935050606086013567ffffffffffffffff811115610ebd57600080fd5b610ec988828901610d45565b92509250509295509295909350565b60008060408385031215610eeb57600080fd5b6000610ef985828601610d06565b9250506020610f0a85828601610d1b565b9150509250929050565b60008060408385031215610f2757600080fd5b6000610f3585828601610d06565b9250506020610f4685828601610d8f565b9150509250929050565b600060208284031215610f6257600080fd5b6000610f7084828501610d30565b91505092915050565b600060208284031215610f8b57600080fd5b6000610f9984828501610d8f565b91505092915050565b610fab816112fb565b82525050565b610fba81611287565b82525050565b610fc981611299565b82525050565b6000610fda8261125a565b610fe48185611265565b9350610ff4818560208601611331565b610ffd81611364565b840191505092915050565b6000611015601783611276565b91507f5472616e73666572206e6f7420617574686f72697a65640000000000000000006000830152602082019050919050565b6000611055600a83611276565b91507f6f6e6c792061646d696e000000000000000000000000000000000000000000006000830152602082019050919050565b6000611095602883611276565b91507f726563697069656e742053432063616e6e6f742068616e646c6520455243373260008301527f3120746f6b656e730000000000000000000000000000000000000000000000006020830152604082019050919050565b60006110fb600e83611276565b91507f4e6f7420617574686f72697a65640000000000000000000000000000000000006000830152602082019050919050565b611137816112f1565b82525050565b60006020820190506111526000830184610fb1565b92915050565b600060808201905061116d6000830187610fa2565b61117a6020830186610fb1565b611187604083018561112e565b81810360608301526111998184610fcf565b905095945050505050565b60006020820190506111b96000830184610fc0565b92915050565b600060208201905081810360008301526111d881611008565b9050919050565b600060208201905081810360008301526111f881611048565b9050919050565b6000602082019050818103600083015261121881611088565b9050919050565b60006020820190508181036000830152611238816110ee565b9050919050565b6000602082019050611254600083018461112e565b92915050565b600081519050919050565b600082825260208201905092915050565b600082825260208201905092915050565b6000611292826112d1565b9050919050565b60008115159050919050565b60007fffffffff0000000000000000000000000000000000000000000000000000000082169050919050565b600073ffffffffffffffffffffffffffffffffffffffff82169050919050565b6000819050919050565b60006113068261130d565b9050919050565b60006113188261131f565b9050919050565b600061132a826112d1565b9050919050565b60005b8381101561134f578082015181840152602081019050611334565b8381111561135e576000848401525b50505050565b6000601f19601f8301169050919050565b61137e81611287565b811461138957600080fd5b50565b61139581611299565b81146113a057600080fd5b50565b6113ac816112a5565b81146113b757600080fd5b50565b6113c3816112f1565b81146113ce57600080fd5b5056fea365627a7a723158203e4076b91bf2b8a6453342b7d328f9826afbdba0f77c2fe7dda623329f01c9e26c6578706572696d656e74616cf564736f6c63430005110040",
  "source": "// SPDX-License-Identifier: MIT\npragma solidity >=0.5.0 <0.6.0;\npragma experimental ABIEncoderV2;\n\nlibrary AddressUtils {\n\n  function isContract(address _addr) internal view returns (bool addressCheck) {\n    uint256 size;\n    assembly { size := extcodesize(_addr) } \n    addressCheck = size > 0;\n  }\n\n}\n\ninterface ERC721TokenReceiver {\n    function onERC721Received(address _operator, address _from, uint256 _tokenId, bytes calldata _data) external returns(bytes4);\n}\n\ninterface ERC721 {\n\n    event Transfer(address indexed _from, address indexed _to, uint256 indexed _tokenId);\n    event Approval(address indexed _owner, address indexed _approved, uint256 indexed _tokenId);\n    event ApprovalForAll(address indexed _owner, address indexed _operator, bool _approved);\n\n    function balanceOf(address _owner) external view returns (uint256);\n    function ownerOf(uint256 _tokenId) external view returns (address);\n    function safeTransferFrom(address _from, address _to, uint256 _tokenId, bytes calldata data) external payable;\n    function safeTransferFrom(address _from, address _to, uint256 _tokenId) external payable;\n    function transferFrom(address _from, address _to, uint256 _tokenId) external payable;\n    function approve(address _approved, uint256 _tokenId) external payable;\n    function setApprovalForAll(address _operator, bool _approved) external;\n    function getApproved(uint256 _tokenId) external view returns (address);\n    function isApprovedForAll(address _owner, address _operator) external view returns (bool);\n}\n\ncontract ERC721Token is ERC721 {\n\n    using AddressUtils for address;\n    \n    uint public nextTokenId;\n    address public admin;\n    bytes4 internal constant MAGIC_ON_ERC721_RECEIVED = 0x150b7a02;\n\n    mapping(address => uint) private ownerToTokenCount;\n    mapping(uint => address) private idToOwner;\n    mapping(uint => address) private idToApproved;\n    mapping(address => mapping(address => bool)) private ownerToOperators;\n\n    constructor() public {\n      admin = msg.sender;\n    }\n\n    modifier canTransfer(uint _tokenId) {\n        address owner = idToOwner[_tokenId];\n        require(owner == msg.sender \n            || idToApproved[_tokenId] == msg.sender\n            || ownerToOperators[owner][msg.sender] == true, 'Transfer not authorized');\n        _;\n    }\n\n    function mint() external {\n        require(msg.sender == admin, 'only admin');\n        ownerToTokenCount[msg.sender]++;\n        idToOwner[nextTokenId] = msg.sender;\n        emit Transfer(address(0), msg.sender, nextTokenId);\n        nextTokenId++;\n    }\n    \n    function balanceOf(address _owner) external view returns(uint) {\n        return ownerToTokenCount[_owner];\n    }\n    \n    function ownerOf(uint256 _tokenId) external view returns (address) {\n        return idToOwner[_tokenId];\n    }\n    \n    function safeTransferFrom(address _from, address _to, uint _tokenId, bytes calldata data) external payable {\n        _safeTransferFrom(_from, _to, _tokenId, data);\n    }\n\n    function safeTransferFrom(address _from, address _to, uint _tokenId) external payable {\n        _safeTransferFrom(_from, _to, _tokenId, \"\"); \n    }\n    \n    function transferFrom(address _from, address _to, uint _tokenId) external payable {\n        _transfer(_from, _to, _tokenId);\n    }\n    \n    function approve(address _approved, uint _tokenId) external payable {\n        address owner = idToOwner[_tokenId];\n        require(msg.sender == owner, 'Not authorized');\n        idToApproved[_tokenId] = _approved;\n        emit Approval(owner, _approved, _tokenId);\n    }\n    \n    function setApprovalForAll(address _operator, bool _approved) external {\n        ownerToOperators[msg.sender][_operator] = _approved;\n        emit ApprovalForAll(msg.sender, _operator, _approved);\n    }\n    \n    function getApproved(uint _tokenId) external view returns (address) {\n        return idToApproved[_tokenId];   \n    }\n    \n    function isApprovedForAll(address _owner, address _operator) external view returns (bool) {\n        return ownerToOperators[_owner][_operator];\n    }\n    \n    function _safeTransferFrom(address _from, address _to, uint _tokenId, bytes memory data) internal {\n       _transfer(_from, _to, _tokenId);\n        \n        if(_to.isContract()) {\n          bytes4 retval = ERC721TokenReceiver(_to).onERC721Received(msg.sender, _from, _tokenId, data);\n          require(retval == MAGIC_ON_ERC721_RECEIVED, 'recipient SC cannot handle ERC721 tokens');\n        }\n    }\n    \n    function _transfer(address _from, address _to, uint _tokenId) \n        internal \n        canTransfer(_tokenId) {\n        ownerToTokenCount[_from] -= 1; \n        ownerToTokenCount[_to] += 1;\n        idToOwner[_tokenId] = _to;\n        emit Transfer(_from, _to, _tokenId);\n    }\n    \n}\n",
  "sourcePath": "/home/dora/1. Kassavin/2. DApps/12_ERC721/contracts/ERC721Token.sol",
  "compiler": {
    "name": "solc",
    "version": "0.5.17+commit.d19bba13.Emscripten.clang"
  },
  "schemaVersion": "3.2.2",
  "updatedAt": "2020-07-21T08:30:41.445Z",
  "networkType": "ethereum",
  "devdoc": {
    "methods": {}
  },
  "userdoc": {
    "methods": {}
  }
}