{
  "contractName": "Tweeter",
  "abi": [
    {
      "inputs": [
        {
          "internalType": "address",
          "name": "ensAddress",
          "type": "address"
        }
      ],
      "payable": false,
      "stateMutability": "nonpayable",
      "type": "constructor"
    },
    {
      "anonymous": false,
      "inputs": [
        {
          "indexed": false,
          "internalType": "uint256",
          "name": "id",
          "type": "uint256"
        },
        {
          "indexed": false,
          "internalType": "string",
          "name": "content",
          "type": "string"
        },
        {
          "indexed": true,
          "internalType": "address",
          "name": "from",
          "type": "address"
        },
        {
          "indexed": true,
          "internalType": "address",
          "name": "to",
          "type": "address"
        },
        {
          "indexed": false,
          "internalType": "uint256",
          "name": "createdAt",
          "type": "uint256"
        }
      ],
      "name": "MessageSent",
      "type": "event"
    },
    {
      "anonymous": false,
      "inputs": [
        {
          "indexed": false,
          "internalType": "uint256",
          "name": "id",
          "type": "uint256"
        },
        {
          "indexed": true,
          "internalType": "address",
          "name": "author",
          "type": "address"
        },
        {
          "indexed": false,
          "internalType": "string",
          "name": "content",
          "type": "string"
        },
        {
          "indexed": false,
          "internalType": "uint256",
          "name": "createdAt",
          "type": "uint256"
        }
      ],
      "name": "TweetSent",
      "type": "event"
    },
    {
      "constant": true,
      "inputs": [],
      "name": "ens",
      "outputs": [
        {
          "internalType": "contract ENS",
          "name": "",
          "type": "address"
        }
      ],
      "payable": false,
      "stateMutability": "view",
      "type": "function"
    },
    {
      "constant": true,
      "inputs": [
        {
          "internalType": "address",
          "name": "",
          "type": "address"
        },
        {
          "internalType": "uint256",
          "name": "",
          "type": "uint256"
        }
      ],
      "name": "following",
      "outputs": [
        {
          "internalType": "address",
          "name": "",
          "type": "address"
        }
      ],
      "payable": false,
      "stateMutability": "view",
      "type": "function"
    },
    {
      "constant": true,
      "inputs": [
        {
          "internalType": "bytes32",
          "name": "_node",
          "type": "bytes32"
        }
      ],
      "name": "resolve",
      "outputs": [
        {
          "internalType": "address",
          "name": "",
          "type": "address"
        }
      ],
      "payable": false,
      "stateMutability": "view",
      "type": "function"
    },
    {
      "constant": true,
      "inputs": [
        {
          "internalType": "address",
          "name": "_authorAddress",
          "type": "address"
        }
      ],
      "name": "reverseResolve",
      "outputs": [
        {
          "internalType": "string",
          "name": "",
          "type": "string"
        }
      ],
      "payable": false,
      "stateMutability": "view",
      "type": "function"
    },
    {
      "constant": false,
      "inputs": [
        {
          "internalType": "string",
          "name": "_content",
          "type": "string"
        }
      ],
      "name": "tweet",
      "outputs": [],
      "payable": false,
      "stateMutability": "nonpayable",
      "type": "function"
    },
    {
      "constant": false,
      "inputs": [
        {
          "internalType": "address",
          "name": "_from",
          "type": "address"
        },
        {
          "internalType": "string",
          "name": "_content",
          "type": "string"
        }
      ],
      "name": "tweetFrom",
      "outputs": [],
      "payable": false,
      "stateMutability": "nonpayable",
      "type": "function"
    },
    {
      "constant": false,
      "inputs": [
        {
          "internalType": "string",
          "name": "_content",
          "type": "string"
        },
        {
          "internalType": "address",
          "name": "_to",
          "type": "address"
        }
      ],
      "name": "sendMessage",
      "outputs": [],
      "payable": false,
      "stateMutability": "nonpayable",
      "type": "function"
    },
    {
      "constant": false,
      "inputs": [
        {
          "internalType": "string",
          "name": "_content",
          "type": "string"
        },
        {
          "internalType": "address",
          "name": "_from",
          "type": "address"
        },
        {
          "internalType": "address",
          "name": "_to",
          "type": "address"
        }
      ],
      "name": "sendMessageFrom",
      "outputs": [],
      "payable": false,
      "stateMutability": "nonpayable",
      "type": "function"
    },
    {
      "constant": false,
      "inputs": [
        {
          "internalType": "address",
          "name": "_followed",
          "type": "address"
        }
      ],
      "name": "follow",
      "outputs": [],
      "payable": false,
      "stateMutability": "nonpayable",
      "type": "function"
    },
    {
      "constant": false,
      "inputs": [
        {
          "internalType": "address",
          "name": "_operator",
          "type": "address"
        }
      ],
      "name": "allow",
      "outputs": [],
      "payable": false,
      "stateMutability": "nonpayable",
      "type": "function"
    },
    {
      "constant": false,
      "inputs": [
        {
          "internalType": "address",
          "name": "_operator",
          "type": "address"
        }
      ],
      "name": "disallow",
      "outputs": [],
      "payable": false,
      "stateMutability": "nonpayable",
      "type": "function"
    },
    {
      "constant": true,
      "inputs": [
        {
          "internalType": "uint256",
          "name": "count",
          "type": "uint256"
        }
      ],
      "name": "getLatestTweets",
      "outputs": [
        {
          "components": [
            {
              "internalType": "uint256",
              "name": "id",
              "type": "uint256"
            },
            {
              "internalType": "address",
              "name": "authorAddress",
              "type": "address"
            },
            {
              "internalType": "string",
              "name": "authorName",
              "type": "string"
            },
            {
              "internalType": "string",
              "name": "content",
              "type": "string"
            },
            {
              "internalType": "uint256",
              "name": "createdAt",
              "type": "uint256"
            }
          ],
          "internalType": "struct Tweeter.Tweet[]",
          "name": "",
          "type": "tuple[]"
        }
      ],
      "payable": false,
      "stateMutability": "view",
      "type": "function"
    },
    {
      "constant": true,
      "inputs": [
        {
          "internalType": "address",
          "name": "_user",
          "type": "address"
        },
        {
          "internalType": "uint256",
          "name": "count",
          "type": "uint256"
        }
      ],
      "name": "getTweetsOf",
      "outputs": [
        {
          "components": [
            {
              "internalType": "uint256",
              "name": "id",
              "type": "uint256"
            },
            {
              "internalType": "address",
              "name": "authorAddress",
              "type": "address"
            },
            {
              "internalType": "string",
              "name": "authorName",
              "type": "string"
            },
            {
              "internalType": "string",
              "name": "content",
              "type": "string"
            },
            {
              "internalType": "uint256",
              "name": "createdAt",
              "type": "uint256"
            }
          ],
          "internalType": "struct Tweeter.Tweet[]",
          "name": "",
          "type": "tuple[]"
        }
      ],
      "payable": false,
      "stateMutability": "view",
      "type": "function"
    }
  ],
  "bytecode": "0x60806040523480156200001157600080fd5b5060405162001db038038062001db0833981810160405262000037919081019062000096565b80600260006101000a81548173ffffffffffffffffffffffffffffffffffffffff021916908373ffffffffffffffffffffffffffffffffffffffff1602179055505062000110565b6000815190506200009081620000f6565b92915050565b600060208284031215620000a957600080fd5b6000620000b9848285016200007f565b91505092915050565b6000620000cf82620000d6565b9050919050565b600073ffffffffffffffffffffffffffffffffffffffff82169050919050565b6200010181620000c2565b81146200010d57600080fd5b50565b611c9080620001206000396000f3fe608060405234801561001057600080fd5b50600436106100cf5760003560e01c80639139cda51161008c578063c48d6d5e11610066578063c48d6d5e14610236578063c6bc463c14610252578063fb46d4c51461026e578063ff9913e81461028a576100cf565b80639139cda5146101ba5780639af8b7aa146101ea578063a9ed9cb81461021a576100cf565b8063179a21e8146100d45780633f15457f146100f05780634dbf27cc1461010e5780634dc0a6871461012a5780635b4d42141461015a5780635c23bdf51461018a575b600080fd5b6100ee60048036036100e991908101906116a0565b6102a6565b005b6100f86102fb565b6040516101059190611a05565b60405180910390f35b610128600480360361012391908101906114cb565b610321565b005b610144600480360361013f919081019061170c565b6103c7565b60405161015191906119c8565b60405180910390f35b610174600480360361016f9190810190611575565b61065c565b60405161018191906119c8565b60405180910390f35b6101a4600480360361019f91908101906115b1565b610952565b6040516101b191906119ad565b60405180910390f35b6101d460048036036101cf9190810190611575565b610a93565b6040516101e191906119ad565b60405180910390f35b61020460048036036101ff91908101906114cb565b610ade565b6040516102119190611a20565b60405180910390f35b610234600480360361022f91908101906114cb565b610b1d565b005b610250600480360361024b9190810190611648565b610bb5565b005b61026c6004803603610267919081019061151d565b610c09565b005b61028860048036036102839190810190611603565b610c5c565b005b6102a4600480360361029f91908101906114cb565b610cae565b005b6102f584848080601f016020809104026020016040519081016040528093929190818152602001838380828437600081840152601f19601f820116905080830192505050505050508383610d46565b50505050565b600260009054906101000a900473ffffffffffffffffffffffffffffffffffffffff1681565b600660003373ffffffffffffffffffffffffffffffffffffffff1673ffffffffffffffffffffffffffffffffffffffff1681526020019081526020016000208190806001815401808255809150509060018203906000526020600020016000909192909190916101000a81548173ffffffffffffffffffffffffffffffffffffffff021916908373ffffffffffffffffffffffffffffffffffffffff1602179055505050565b60606000821180156103db57506000548211155b61041a576040517f08c379a000000000000000000000000000000000000000000000000000000000815260040161041190611a42565b60405180910390fd5b60608260405190808252806020026020018201604052801561045657816020015b61044361132e565b81526020019060019003908161043b5790505b509050600080846000540390505b6000548110156106515760006003600083815260200190815260200160002090506040518060a00160405280826000015481526020018260010160009054906101000a900473ffffffffffffffffffffffffffffffffffffffff1673ffffffffffffffffffffffffffffffffffffffff168152602001826002018054600181600116156101000203166002900480601f0160208091040260200160405190810160405280929190818152602001828054600181600116156101000203166002900480156105725780601f1061054757610100808354040283529160200191610572565b820191906000526020600020905b81548152906001019060200180831161055557829003601f168201915b50505050508152602001826003018054600181600116156101000203166002900480601f0160208091040260200160405190810160405280929190818152602001828054600181600116156101000203166002900480156106145780601f106105e957610100808354040283529160200191610614565b820191906000526020600020905b8154815290600101906020018083116105f757829003601f168201915b50505050508152602001826004015481525084848151811061063257fe5b6020026020010181905250600183019250508080600101915050610464565b508192505050919050565b60606000600460008573ffffffffffffffffffffffffffffffffffffffff1673ffffffffffffffffffffffffffffffffffffffff16815260200190815260200160002090506000831180156106b5575080805490508311155b6106f4576040517f08c379a00000000000000000000000000000000000000000000000000000000081526004016106eb90611a42565b60405180910390fd5b60608360405190808252806020026020018201604052801561073057816020015b61071d61132e565b8152602001906001900390816107155790505b5090506000808584805490500390505b83805490508110156109455760006003600086848154811061075e57fe5b9060005260206000200154815260200190815260200160002090506040518060a00160405280826000015481526020018260010160009054906101000a900473ffffffffffffffffffffffffffffffffffffffff1673ffffffffffffffffffffffffffffffffffffffff168152602001826002018054600181600116156101000203166002900480601f0160208091040260200160405190810160405280929190818152602001828054600181600116156101000203166002900480156108665780601f1061083b57610100808354040283529160200191610866565b820191906000526020600020905b81548152906001019060200180831161084957829003601f168201915b50505050508152602001826003018054600181600116156101000203166002900480601f0160208091040260200160405190810160405280929190818152602001828054600181600116156101000203166002900480156109085780601f106108dd57610100808354040283529160200191610908565b820191906000526020600020905b8154815290600101906020018083116108eb57829003601f168201915b50505050508152602001826004015481525084848151811061092657fe5b6020026020010181905250600183019250508080600101915050610740565b5081935050505092915050565b600080600260009054906101000a900473ffffffffffffffffffffffffffffffffffffffff1673ffffffffffffffffffffffffffffffffffffffff16630178b8bf846040518263ffffffff1660e01b81526004016109b091906119ea565b60206040518083038186803b1580156109c857600080fd5b505afa1580156109dc573d6000803e3d6000fd5b505050506040513d601f19601f82011682018060405250610a0091908101906115da565b90508073ffffffffffffffffffffffffffffffffffffffff16633b3b57de846040518263ffffffff1660e01b8152600401610a3b91906119ea565b60206040518083038186803b158015610a5357600080fd5b505afa158015610a67573d6000803e3d6000fd5b505050506040513d601f19601f82011682018060405250610a8b91908101906114f4565b915050919050565b60066020528160005260406000208181548110610aac57fe5b906000526020600020016000915091509054906101000a900473ffffffffffffffffffffffffffffffffffffffff1681565b60606040518060400160405280600b81526020017f617574686f72206e616d650000000000000000000000000000000000000000008152509050919050565b6000600760003373ffffffffffffffffffffffffffffffffffffffff1673ffffffffffffffffffffffffffffffffffffffff16815260200190815260200160002060008373ffffffffffffffffffffffffffffffffffffffff1673ffffffffffffffffffffffffffffffffffffffff16815260200190815260200160002060006101000a81548160ff02191690831515021790555050565b610c0483838080601f016020809104026020016040519081016040528093929190818152602001838380828437600081840152601f19601f820116905080830192505050505050503383610d46565b505050565b610c578383838080601f016020809104026020016040519081016040528093929190818152602001838380828437600081840152601f19601f82011690508083019250505050505050611059565b505050565b610caa3383838080601f016020809104026020016040519081016040528093929190818152602001838380828437600081840152601f19601f82011690508083019250505050505050611059565b5050565b6001600760003373ffffffffffffffffffffffffffffffffffffffff1673ffffffffffffffffffffffffffffffffffffffff16815260200190815260200160002060008373ffffffffffffffffffffffffffffffffffffffff1673ffffffffffffffffffffffffffffffffffffffff16815260200190815260200160002060006101000a81548160ff02191690831515021790555050565b8160011515600760008373ffffffffffffffffffffffffffffffffffffffff1673ffffffffffffffffffffffffffffffffffffffff16815260200190815260200160002060003373ffffffffffffffffffffffffffffffffffffffff1673ffffffffffffffffffffffffffffffffffffffff16815260200190815260200160002060009054906101000a900460ff1615151480610e0e57508073ffffffffffffffffffffffffffffffffffffffff163373ffffffffffffffffffffffffffffffffffffffff16145b610e4d576040517f08c379a0000000000000000000000000000000000000000000000000000000008152600401610e4490611a62565b60405180910390fd5b60008273ffffffffffffffffffffffffffffffffffffffff168473ffffffffffffffffffffffffffffffffffffffff16019050600560008281526020019081526020016000206040518060a0016040528060015481526020018781526020018673ffffffffffffffffffffffffffffffffffffffff1681526020018573ffffffffffffffffffffffffffffffffffffffff1681526020014281525090806001815401808255809150509060018203906000526020600020906005020160009091929091909150600082015181600001556020820151816001019080519060200190610f39929190611373565b5060408201518160020160006101000a81548173ffffffffffffffffffffffffffffffffffffffff021916908373ffffffffffffffffffffffffffffffffffffffff16021790555060608201518160030160006101000a81548173ffffffffffffffffffffffffffffffffffffffff021916908373ffffffffffffffffffffffffffffffffffffffff160217905550608082015181600401555050508273ffffffffffffffffffffffffffffffffffffffff168473ffffffffffffffffffffffffffffffffffffffff167f053227a5bdcc96607ea58ea40dd04c9394ddebceb1cd539ad1289d8b074bc4eb600154884260405161103893929190611a82565b60405180910390a36001600081548092919060010191905055505050505050565b8160011515600760008373ffffffffffffffffffffffffffffffffffffffff1673ffffffffffffffffffffffffffffffffffffffff16815260200190815260200160002060003373ffffffffffffffffffffffffffffffffffffffff1673ffffffffffffffffffffffffffffffffffffffff16815260200190815260200160002060009054906101000a900460ff161515148061112157508073ffffffffffffffffffffffffffffffffffffffff163373ffffffffffffffffffffffffffffffffffffffff16145b611160576040517f08c379a000000000000000000000000000000000000000000000000000000000815260040161115790611a62565b60405180910390fd5b606061116b84610ade565b90506040518060a0016040528060005481526020018573ffffffffffffffffffffffffffffffffffffffff1681526020018281526020018481526020014281525060036000805481526020019081526020016000206000820151816000015560208201518160010160006101000a81548173ffffffffffffffffffffffffffffffffffffffff021916908373ffffffffffffffffffffffffffffffffffffffff160217905550604082015181600201908051906020019061122d929190611373565b50606082015181600301908051906020019061124a929190611373565b5060808201518160040155905050600460008573ffffffffffffffffffffffffffffffffffffffff1673ffffffffffffffffffffffffffffffffffffffff16815260200190815260200160002060005490806001815401808255809150509060018203906000526020600020016000909192909190915055508373ffffffffffffffffffffffffffffffffffffffff167f8d6b17b300471dd2e4fef05e2e70f50c236372b9a4aaf37cdb52644d99bc21a7600054854260405161130f93929190611a82565b60405180910390a2600080815480929190600101919050555050505050565b6040518060a0016040528060008152602001600073ffffffffffffffffffffffffffffffffffffffff1681526020016060815260200160608152602001600081525090565b828054600181600116156101000203166002900490600052602060002090601f016020900481019282601f106113b457805160ff19168380011785556113e2565b828001600101855582156113e2579182015b828111156113e15782518255916020019190600101906113c6565b5b5090506113ef91906113f3565b5090565b61141591905b808211156114115760008160009055506001016113f9565b5090565b90565b60008135905061142781611bf1565b92915050565b60008151905061143c81611bf1565b92915050565b60008135905061145181611c08565b92915050565b60008151905061146681611c1f565b92915050565b60008083601f84011261147e57600080fd5b8235905067ffffffffffffffff81111561149757600080fd5b6020830191508360018202830111156114af57600080fd5b9250929050565b6000813590506114c581611c36565b92915050565b6000602082840312156114dd57600080fd5b60006114eb84828501611418565b91505092915050565b60006020828403121561150657600080fd5b60006115148482850161142d565b91505092915050565b60008060006040848603121561153257600080fd5b600061154086828701611418565b935050602084013567ffffffffffffffff81111561155d57600080fd5b6115698682870161146c565b92509250509250925092565b6000806040838503121561158857600080fd5b600061159685828601611418565b92505060206115a7858286016114b6565b9150509250929050565b6000602082840312156115c357600080fd5b60006115d184828501611442565b91505092915050565b6000602082840312156115ec57600080fd5b60006115fa84828501611457565b91505092915050565b6000806020838503121561161657600080fd5b600083013567ffffffffffffffff81111561163057600080fd5b61163c8582860161146c565b92509250509250929050565b60008060006040848603121561165d57600080fd5b600084013567ffffffffffffffff81111561167757600080fd5b6116838682870161146c565b9350935050602061169686828701611418565b9150509250925092565b600080600080606085870312156116b657600080fd5b600085013567ffffffffffffffff8111156116d057600080fd5b6116dc8782880161146c565b945094505060206116ef87828801611418565b925050604061170087828801611418565b91505092959194509250565b60006020828403121561171e57600080fd5b600061172c848285016114b6565b91505092915050565b60006117418383611912565b905092915050565b61175281611b31565b82525050565b61176181611b31565b82525050565b600061177282611ad0565b61177c8185611afe565b93508360208202850161178e85611ac0565b8060005b858110156117ca57848403895281516117ab8582611735565b94506117b683611af1565b925060208a01995050600181019050611792565b50829750879550505050505092915050565b6117e581611b43565b82525050565b6117f481611b89565b82525050565b600061180582611ae6565b61180f8185611b20565b935061181f818560208601611bad565b61182881611be0565b840191505092915050565b600061183e82611adb565b6118488185611b0f565b9350611858818560208601611bad565b61186181611be0565b840191505092915050565b6000611879602483611b20565b91507f546f6f20666577206f7220746f6f206d616e792074776565747320746f20726560008301527f7475726e000000000000000000000000000000000000000000000000000000006020830152604082019050919050565b60006118df601783611b20565b91507f4f70657261746f72206e6f7420617574686f72697a65640000000000000000006000830152602082019050919050565b600060a08301600083015161192a600086018261198f565b50602083015161193d6020860182611749565b50604083015184820360408601526119558282611833565b9150506060830151848203606086015261196f8282611833565b9150506080830151611984608086018261198f565b508091505092915050565b61199881611b7f565b82525050565b6119a781611b7f565b82525050565b60006020820190506119c26000830184611758565b92915050565b600060208201905081810360008301526119e28184611767565b905092915050565b60006020820190506119ff60008301846117dc565b92915050565b6000602082019050611a1a60008301846117eb565b92915050565b60006020820190508181036000830152611a3a81846117fa565b905092915050565b60006020820190508181036000830152611a5b8161186c565b9050919050565b60006020820190508181036000830152611a7b816118d2565b9050919050565b6000606082019050611a97600083018661199e565b8181036020830152611aa981856117fa565b9050611ab8604083018461199e565b949350505050565b6000819050602082019050919050565b600081519050919050565b600081519050919050565b600081519050919050565b6000602082019050919050565b600082825260208201905092915050565b600082825260208201905092915050565b600082825260208201905092915050565b6000611b3c82611b5f565b9050919050565b6000819050919050565b6000611b5882611b31565b9050919050565b600073ffffffffffffffffffffffffffffffffffffffff82169050919050565b6000819050919050565b6000611b9482611b9b565b9050919050565b6000611ba682611b5f565b9050919050565b60005b83811015611bcb578082015181840152602081019050611bb0565b83811115611bda576000848401525b50505050565b6000601f19601f8301169050919050565b611bfa81611b31565b8114611c0557600080fd5b50565b611c1181611b43565b8114611c1c57600080fd5b50565b611c2881611b4d565b8114611c3357600080fd5b50565b611c3f81611b7f565b8114611c4a57600080fd5b5056fea365627a7a72315820e548d020aa09bbecc7912121c45d8f55f7f8da1096700560f67736f539e0f3126c6578706572696d656e74616cf564736f6c63430005110040",
  "source": "// SPDX-License-Identifier: MIT\npragma solidity >=0.5.0 <0.6.0;\npragma experimental ABIEncoderV2;\n\ncontract Resolver {\n    function addr(bytes32 node) view external returns (address);\n}\n\ncontract ENS {\n    function resolver(bytes32 node) view external returns (Resolver);\n}\n\ncontract Tweeter {\n\n    event TweetSent ( uint id, address indexed author, string content, uint createdAt );\n    event MessageSent ( uint id, string content, address indexed from, address indexed to, uint createdAt );\n\n    uint private nextTweetId;\n    uint private nextMessageId;\n    ENS public ens;\n\n    mapping(uint => Tweet) private tweets;\n    mapping(address => uint[]) private tweetsOf;\n    mapping(uint => Message[]) private conversations;\n    mapping(address => address[]) public following;\n    mapping(address => mapping(address => bool)) private operators;\n\n    struct Tweet { uint id; address authorAddress; string authorName; string content; uint createdAt; }\n    struct Message { uint id; string content; address from; address to; uint createdAt; }\n\n    modifier canOperate(address _from) {\n        require( operators[_from][msg.sender] == true || msg.sender == _from, 'Operator not authorized');\n        _;\n    }\n\n    constructor(address ensAddress) public {\n        ens = ENS(ensAddress);\n    }\n\n    function resolve(bytes32 _node) view public returns(address) {\n        Resolver resolver = ens.resolver(_node);\n        return resolver.addr(_node);\n    }\n\n    function reverseResolve(address _authorAddress) view public returns(string memory) {\n          return 'author name';\n    }\n    \n    function tweet(string calldata _content) external {\n        _tweet(msg.sender, _content);\n    }\n    \n    function tweetFrom(address _from, string calldata _content) external {\n        _tweet(_from, _content);\n    }\n    \n    function sendMessage(string calldata _content, address _to) external {\n         _sendMessage(_content, msg.sender, _to);  \n    }\n    \n    function sendMessageFrom(string calldata _content, address _from, address _to) external {\n        _sendMessage(_content, _from, _to);    \n    }\n    \n    function follow(address _followed) external {\n        following[msg.sender].push(_followed);\n    }\n\n    function allow(address _operator) external {\n        operators[msg.sender][_operator] = true;\n    }\n\n    function disallow(address _operator) external {\n        operators[msg.sender][_operator] = false;\n    }\n    \n    function getLatestTweets(uint count) view external returns(Tweet[] memory) {\n        require(count > 0 && count <= nextTweetId, 'Too few or too many tweets to return');\n        \n        Tweet[] memory _tweets = new Tweet[](count);\n        uint j; \n        \n        for (uint i = nextTweetId - count; i < nextTweetId; i++) {\n            Tweet storage _tweet = tweets[i];\n            _tweets[j] = Tweet( _tweet.id, _tweet.authorAddress, _tweet.authorName, _tweet.content,  _tweet.createdAt);\n            j += 1;\n        }\n\n        return _tweets;\n    }\n    \n    function getTweetsOf(address _user, uint count) view external returns(Tweet[] memory) {\n        uint[] storage tweetIds = tweetsOf[_user];\n        require(count > 0 && count <= tweetIds.length, 'Too few or too many tweets to return');\n\n        Tweet[] memory _tweets = new Tweet[](count);\n        uint j; \n\n        for (uint i = tweetIds.length - count; i < tweetIds.length; i++) {\n          Tweet storage _tweet = tweets[tweetIds[i]];\n          _tweets[j] = Tweet( _tweet.id, _tweet.authorAddress, _tweet.authorName, _tweet.content, _tweet.createdAt);\n          j += 1;\n        }\n\n        return _tweets;\n    }\n    \n    function _tweet( address _authorAddress, string memory _content) internal canOperate(_authorAddress) {\n        \n        string memory authorName = reverseResolve(_authorAddress);\n        tweets[nextTweetId] = Tweet( nextTweetId, _authorAddress, authorName, _content, now);\n        tweetsOf[_authorAddress].push(nextTweetId);\n\n        emit TweetSent(nextTweetId, _authorAddress, _content, now);\n        nextTweetId++;\n    }\n        \n    function _sendMessage( string memory _content, address _from, address _to) internal canOperate(_from) {\n        \n        uint conversationId = uint(_from) + uint(_to);\n        conversations[conversationId].push(Message(nextMessageId, _content, _from, _to, now));\n        \n        emit MessageSent(nextMessageId, _content, _from, _to, now);\n        nextMessageId++;  \n    }\n       \n}\n",
  "sourcePath": "/home/dora/1. Kassavin/2. DApps/14_Social_Media/contracts/Tweeter.sol",
  "compiler": {
    "name": "solc",
    "version": "0.5.17+commit.d19bba13.Emscripten.clang"
  },
  "schemaVersion": "3.2.2",
  "updatedAt": "2020-07-21T11:49:12.789Z",
  "networkType": "ethereum",
  "devdoc": {
    "methods": {}
  },
  "userdoc": {
    "methods": {}
  }
}