{
  "contractName": "MyStringStore",
  "abi": [
    {
      "constant": true,
      "inputs": [],
      "name": "myString",
      "outputs": [
        {
          "name": "",
          "type": "string"
        }
      ],
      "payable": false,
      "stateMutability": "view",
      "type": "function"
    },
    {
      "constant": false,
      "inputs": [
        {
          "name": "x",
          "type": "string"
        }
      ],
      "name": "set",
      "outputs": [],
      "payable": false,
      "stateMutability": "nonpayable",
      "type": "function"
    }
  ],
  "bytecode": "0x60806040526040805190810160405280600b81526020017f48656c6c6f20576f726c640000000000000000000000000000000000000000008152506000908051906020019061004f929190610062565b5034801561005c57600080fd5b50610107565b828054600181600116156101000203166002900490600052602060002090601f016020900481019282601f106100a357805160ff19168380011785556100d1565b828001600101855582156100d1579182015b828111156100d05782518255916020019190600101906100b5565b5b5090506100de91906100e2565b5090565b61010491905b808211156101005760008160009055506001016100e8565b5090565b90565b6103dc806101166000396000f3fe608060405260043610610046576000357c010000000000000000000000000000000000000000000000000000000090048063492bfa181461004b5780634ed3885e14610076575b600080fd5b34801561005757600080fd5b5061006061009f565b60405161006d91906102c9565b60405180910390f35b34801561008257600080fd5b5061009d60048036036100989190810190610252565b61013d565b005b60008054600181600116156101000203166002900480601f0160208091040260200160405190810160405280929190818152602001828054600181600116156101000203166002900480156101355780601f1061010a57610100808354040283529160200191610135565b820191906000526020600020905b81548152906001019060200180831161011857829003601f168201915b505050505081565b8060009080519060200190610153929190610157565b5050565b828054600181600116156101000203166002900490600052602060002090601f016020900481019282601f1061019857805160ff19168380011785556101c6565b828001600101855582156101c6579182015b828111156101c55782518255916020019190600101906101aa565b5b5090506101d391906101d7565b5090565b6101f991905b808211156101f55760008160009055506001016101dd565b5090565b90565b600082601f830112151561020f57600080fd5b813561022261021d82610318565b6102eb565b9150808252602083016020830185838301111561023e57600080fd5b61024983828461034f565b50505092915050565b60006020828403121561026457600080fd5b600082013567ffffffffffffffff81111561027e57600080fd5b61028a848285016101fc565b91505092915050565b600061029e82610344565b8084526102b281602086016020860161035e565b6102bb81610391565b602085010191505092915050565b600060208201905081810360008301526102e38184610293565b905092915050565b6000604051905081810181811067ffffffffffffffff8211171561030e57600080fd5b8060405250919050565b600067ffffffffffffffff82111561032f57600080fd5b601f19601f8301169050602081019050919050565b600081519050919050565b82818337600083830152505050565b60005b8381101561037c578082015181840152602081019050610361565b8381111561038b576000848401525b50505050565b6000601f19601f830116905091905056fea265627a7a723058204719a3e3a64362ade125aba43c96e6c555434509af522db904a7dc247bb3c8f06c6578706572696d656e74616cf50037",
  "source": "// SPDX-License-Identifier: MIT\npragma solidity >=0.5.0 <0.6.0;\npragma experimental ABIEncoderV2;\n\ncontract MyStringStore {\n\n  string public myString = \"Hello World\";\n\n  function set(string memory x) public {\n    myString = x;\n  }\n  \n}\n",
  "sourcePath": "/home/dora/1. Kassavin/2. DApps/4_String_Handling/contracts/MyStringStore.sol",
  "compiler": {
    "name": "solc",
    "version": "0.5.1+commit.c8a2cb62.Emscripten.clang"
  },
  "schemaVersion": "3.2.2",
  "updatedAt": "2020-07-14T12:04:07.735Z",
  "networkType": "ethereum",
  "devdoc": {
    "methods": {}
  },
  "userdoc": {
    "methods": {}
  }
}