{
  "contractName": "DApp",
  "abi": [
    {
      "anonymous": false,
      "inputs": [
        {
          "indexed": false,
          "internalType": "address",
          "name": "sender",
          "type": "address"
        },
        {
          "indexed": false,
          "internalType": "string",
          "name": "Nickname",
          "type": "string"
        }
      ],
      "name": "update",
      "type": "event"
    },
    {
      "inputs": [],
      "name": "edits",
      "outputs": [
        {
          "internalType": "uint256",
          "name": "",
          "type": "uint256"
        }
      ],
      "stateMutability": "view",
      "type": "function",
      "constant": true
    },
    {
      "inputs": [
        {
          "internalType": "address",
          "name": "",
          "type": "address"
        }
      ],
      "name": "nicknames",
      "outputs": [
        {
          "internalType": "string",
          "name": "nickname",
          "type": "string"
        },
        {
          "internalType": "uint256",
          "name": "edit",
          "type": "uint256"
        },
        {
          "internalType": "uint256",
          "name": "user",
          "type": "uint256"
        }
      ],
      "stateMutability": "view",
      "type": "function",
      "constant": true
    },
    {
      "inputs": [],
      "name": "users",
      "outputs": [
        {
          "internalType": "uint256",
          "name": "",
          "type": "uint256"
        }
      ],
      "stateMutability": "view",
      "type": "function",
      "constant": true
    },
    {
      "inputs": [
        {
          "internalType": "string",
          "name": "_string",
          "type": "string"
        }
      ],
      "name": "SetNickname",
      "outputs": [],
      "stateMutability": "nonpayable",
      "type": "function"
    },
    {
      "inputs": [],
      "name": "ReturnNickname",
      "outputs": [
        {
          "internalType": "string",
          "name": "",
          "type": "string"
        }
      ],
      "stateMutability": "view",
      "type": "function",
      "constant": true
    },
    {
      "inputs": [],
      "name": "Returnuser",
      "outputs": [
        {
          "internalType": "uint256",
          "name": "",
          "type": "uint256"
        }
      ],
      "stateMutability": "view",
      "type": "function",
      "constant": true
    },
    {
      "inputs": [],
      "name": "Returnedit",
      "outputs": [
        {
          "internalType": "uint256",
          "name": "",
          "type": "uint256"
        }
      ],
      "stateMutability": "view",
      "type": "function",
      "constant": true
    }
  ],
  "bytecode": "0x608060405234801561001057600080fd5b50610948806100206000396000f3fe608060405234801561001057600080fd5b506004361061007d5760003560e01c8063807804ec1161005b578063807804ec146100da57806382f75135146100f8578063909151b514610116578063f2020275146101485761007d565b8063546a76451461008257806368adcc8d1461009e57806379620b66146100bc575b600080fd5b61009c6004803603810190610097919061067e565b610166565b005b6100a6610303565b6040516100b39190610746565b60405180910390f35b6100c46103e5565b6040516100d191906107a6565b60405180910390f35b6100e261042f565b6040516100ef91906107a6565b60405180910390f35b610100610435565b60405161010d91906107a6565b60405180910390f35b610130600480360381019061012b9190610655565b61047f565b60405161013f93929190610768565b60405180910390f35b610150610541565b60405161015d91906107a6565b60405180910390f35b80600260003373ffffffffffffffffffffffffffffffffffffffff1673ffffffffffffffffffffffffffffffffffffffff16815260200190815260200160002060000190805190602001906101bc929190610547565b50600260003373ffffffffffffffffffffffffffffffffffffffff1673ffffffffffffffffffffffffffffffffffffffff168152602001908152602001600020600101600081548092919060010191905055506001600081548092919060010191905055506000600260003373ffffffffffffffffffffffffffffffffffffffff1673ffffffffffffffffffffffffffffffffffffffff1681526020019081526020016000206002015414156102c7576000808154809291906001019190505550600054600260003373ffffffffffffffffffffffffffffffffffffffff1673ffffffffffffffffffffffffffffffffffffffff168152602001908152602001600020600201819055505b7f838e7c3a8f81ad12340d79127712bf696a53185b4fd18359aa5e8096cdeb4e7033826040516102f8929190610716565b60405180910390a150565b6060600260003373ffffffffffffffffffffffffffffffffffffffff1673ffffffffffffffffffffffffffffffffffffffff1681526020019081526020016000206000018054600181600116156101000203166002900480601f0160208091040260200160405190810160405280929190818152602001828054600181600116156101000203166002900480156103db5780601f106103b0576101008083540402835291602001916103db565b820191906000526020600020905b8154815290600101906020018083116103be57829003601f168201915b5050505050905090565b6000600260003373ffffffffffffffffffffffffffffffffffffffff1673ffffffffffffffffffffffffffffffffffffffff16815260200190815260200160002060010154905090565b60015481565b6000600260003373ffffffffffffffffffffffffffffffffffffffff1673ffffffffffffffffffffffffffffffffffffffff16815260200190815260200160002060020154905090565b6002602052806000526040600020600091509050806000018054600181600116156101000203166002900480601f01602080910402602001604051908101604052809291908181526020018280546001816001161561010002031660029004801561052b5780601f106105005761010080835404028352916020019161052b565b820191906000526020600020905b81548152906001019060200180831161050e57829003601f168201915b5050505050908060010154908060020154905083565b60005481565b828054600181600116156101000203166002900490600052602060002090601f016020900481019282601f1061058857805160ff19168380011785556105b6565b828001600101855582156105b6579182015b828111156105b557825182559160200191906001019061059a565b5b5090506105c391906105c7565b5090565b6105e991905b808211156105e55760008160009055506001016105cd565b5090565b90565b6000813590506105fb816108fb565b92915050565b600082601f83011261061257600080fd5b8135610625610620826107ee565b6107c1565b9150808252602083016020830185838301111561064157600080fd5b61064c8382846108a8565b50505092915050565b60006020828403121561066757600080fd5b6000610675848285016105ec565b91505092915050565b60006020828403121561069057600080fd5b600082013567ffffffffffffffff8111156106aa57600080fd5b6106b684828501610601565b91505092915050565b6106c881610872565b82525050565b60006106d98261081a565b6106e38185610825565b93506106f38185602086016108b7565b6106fc816108ea565b840191505092915050565b61071081610868565b82525050565b600060408201905061072b60008301856106bf565b818103602083015261073d81846106ce565b90509392505050565b6000602082019050818103600083015261076081846106ce565b905092915050565b6000606082019050818103600083015261078281866106ce565b90506107916020830185610707565b61079e6040830184610707565b949350505050565b60006020820190506107bb6000830184610707565b92915050565b6000604051905081810181811067ffffffffffffffff821117156107e457600080fd5b8060405250919050565b600067ffffffffffffffff82111561080557600080fd5b601f19601f8301169050602081019050919050565b600081519050919050565b600082825260208201905092915050565b600061084182610848565b9050919050565b600073ffffffffffffffffffffffffffffffffffffffff82169050919050565b6000819050919050565b600061087d82610884565b9050919050565b600061088f82610896565b9050919050565b60006108a182610848565b9050919050565b82818337600083830152505050565b60005b838110156108d55780820151818401526020810190506108ba565b838111156108e4576000848401525b50505050565b6000601f19601f8301169050919050565b61090481610836565b811461090f57600080fd5b5056fea2646970667358221220b6767f3c7bcfca492a35ae0a1655d6541f53896e279c2210c4352d54dd8062e164736f6c634300060a0033",
  "immutableReferences": {},
  "source": "// SPDX-License-Identifier: MIT\npragma solidity >=0.6.0 <0.7.0;\npragma experimental ABIEncoderV2;\n\ncontract DApp {\n\n\tevent update(address sender, string Nickname);\n\n\tuint public users;\n\tuint public edits;\n\n\tstruct profile {\n\t\tstring nickname;\n\t\tuint edit;\n\t\tuint user;\n\t}\n\n\tmapping (address => profile) public nicknames;\n\t\n   \tfunction SetNickname(string memory _string) public {\n   \t\tnicknames[msg.sender].nickname = _string;\n   \t\tnicknames[msg.sender].edit++;\n   \t\tedits++;\n\n   \t\tif (nicknames[msg.sender].user == 0) {\n   \t\t\tusers++;\n   \t\t\tnicknames[msg.sender].user = users;\n   \t\t}\n\n   \t\temit update(msg.sender, _string);\n\n   \t}\n\n   \tfunction ReturnNickname() public view returns(string memory) {\n   \t\treturn nicknames[msg.sender].nickname;\n   \t}\n\n   \tfunction Returnuser() public view returns(uint) {\n   \t\treturn nicknames[msg.sender].user;\n   \t}\n\n   \tfunction Returnedit() public view returns(uint) {\n   \t\treturn nicknames[msg.sender].edit;\n   \t}\n     \n}\n",
  "sourcePath": "/home/dora/1. Kassavin/2. DApps/2_Nickname/contracts/DAppFile.sol",
  "compiler": {
    "name": "solc",
    "version": "0.6.10+commit.00c0fcaf.Emscripten.clang"
  },
  "schemaVersion": "3.2.2",
  "updatedAt": "2020-07-10T17:10:10.084Z",
  "networkType": "ethereum",
  "devdoc": {
    "methods": {}
  },
  "userdoc": {
    "methods": {}
  }
}