{
  "contractName": "DApp",
  "abi": [
    {
      "anonymous": false,
      "inputs": [
        {
          "indexed": true,
          "internalType": "uint256",
          "name": "bounty_id",
          "type": "uint256"
        },
        {
          "indexed": true,
          "internalType": "address",
          "name": "issuer",
          "type": "address"
        },
        {
          "indexed": false,
          "internalType": "uint256",
          "name": "amount",
          "type": "uint256"
        }
      ],
      "name": "BountyCancelled",
      "type": "event"
    },
    {
      "anonymous": false,
      "inputs": [
        {
          "indexed": false,
          "internalType": "uint256",
          "name": "bounty_id",
          "type": "uint256"
        },
        {
          "indexed": false,
          "internalType": "address",
          "name": "fulfiller",
          "type": "address"
        },
        {
          "indexed": false,
          "internalType": "uint256",
          "name": "fulfillment_id",
          "type": "uint256"
        },
        {
          "indexed": false,
          "internalType": "string",
          "name": "data",
          "type": "string"
        }
      ],
      "name": "BountyFulfilled",
      "type": "event"
    },
    {
      "anonymous": false,
      "inputs": [
        {
          "indexed": false,
          "internalType": "uint256",
          "name": "bounty_id",
          "type": "uint256"
        },
        {
          "indexed": false,
          "internalType": "address",
          "name": "issuer",
          "type": "address"
        },
        {
          "indexed": false,
          "internalType": "uint256",
          "name": "amount",
          "type": "uint256"
        },
        {
          "indexed": false,
          "internalType": "string",
          "name": "data",
          "type": "string"
        }
      ],
      "name": "BountyIssued",
      "type": "event"
    },
    {
      "anonymous": false,
      "inputs": [
        {
          "indexed": false,
          "internalType": "uint256",
          "name": "bounty_id",
          "type": "uint256"
        },
        {
          "indexed": false,
          "internalType": "address",
          "name": "issuer",
          "type": "address"
        },
        {
          "indexed": false,
          "internalType": "address",
          "name": "fulfiller",
          "type": "address"
        },
        {
          "indexed": true,
          "internalType": "uint256",
          "name": "fulfillment_id",
          "type": "uint256"
        },
        {
          "indexed": false,
          "internalType": "uint256",
          "name": "amount",
          "type": "uint256"
        }
      ],
      "name": "FulfillmentAccepted",
      "type": "event"
    },
    {
      "inputs": [
        {
          "internalType": "uint256",
          "name": "",
          "type": "uint256"
        }
      ],
      "name": "bounties",
      "outputs": [
        {
          "internalType": "address payable",
          "name": "issuer",
          "type": "address"
        },
        {
          "internalType": "uint256",
          "name": "deadline",
          "type": "uint256"
        },
        {
          "internalType": "string",
          "name": "data",
          "type": "string"
        },
        {
          "internalType": "enum DApp.BountyStatus",
          "name": "status",
          "type": "uint8"
        },
        {
          "internalType": "uint256",
          "name": "amount",
          "type": "uint256"
        }
      ],
      "stateMutability": "view",
      "type": "function",
      "constant": true
    },
    {
      "inputs": [
        {
          "internalType": "string",
          "name": "_data",
          "type": "string"
        },
        {
          "internalType": "uint64",
          "name": "_deadline",
          "type": "uint64"
        }
      ],
      "name": "issueBounty",
      "outputs": [
        {
          "internalType": "uint256",
          "name": "",
          "type": "uint256"
        }
      ],
      "stateMutability": "payable",
      "type": "function",
      "payable": true
    },
    {
      "inputs": [
        {
          "internalType": "uint256",
          "name": "_bountyId",
          "type": "uint256"
        },
        {
          "internalType": "string",
          "name": "_data",
          "type": "string"
        }
      ],
      "name": "fulfillBounty",
      "outputs": [],
      "stateMutability": "nonpayable",
      "type": "function"
    },
    {
      "inputs": [
        {
          "internalType": "uint256",
          "name": "_bountyId",
          "type": "uint256"
        },
        {
          "internalType": "uint256",
          "name": "_fulfillmentId",
          "type": "uint256"
        }
      ],
      "name": "acceptFulfillment",
      "outputs": [],
      "stateMutability": "nonpayable",
      "type": "function"
    },
    {
      "inputs": [
        {
          "internalType": "uint256",
          "name": "_bountyId",
          "type": "uint256"
        }
      ],
      "name": "cancelBounty",
      "outputs": [],
      "stateMutability": "nonpayable",
      "type": "function"
    }
  ],
  "bytecode": "0x608060405234801561001057600080fd5b50611174806100206000396000f3fe60806040526004361061004a5760003560e01c80631e688c141461004f578063a372625314610078578063d9583497146100a8578063dc2f8744146100d1578063e5e5dff114610112575b600080fd5b34801561005b57600080fd5b5061007660048036038101906100719190610d85565b61013b565b005b610092600480360381019061008d9190610d08565b610394565b60405161009f9190610ee4565b60405180910390f35b3480156100b457600080fd5b506100cf60048036038101906100ca9190610dd9565b610531565b005b3480156100dd57600080fd5b506100f860048036038101906100f39190610d5c565b6108ad565b604051610109959493929190610e8a565b60405180910390f35b34801561011e57600080fd5b5061013960048036038101906101349190610d5c565b6109b5565b005b81600080549050811061014d57600080fd5b826000818154811061015b57fe5b906000526020600020906005020160000160009054906101000a900473ffffffffffffffffffffffffffffffffffffffff1673ffffffffffffffffffffffffffffffffffffffff163373ffffffffffffffffffffffffffffffffffffffff1614156101c557600080fd5b8360008060028111156101d457fe5b600083815481106101e157fe5b906000526020600020906005020160030160009054906101000a900460ff16600281111561020b57fe5b1461021557600080fd5b856000818154811061022357fe5b906000526020600020906005020160010154421061024057600080fd5b6001600088815260200190815260200160002060405180606001604052806000151581526020013373ffffffffffffffffffffffffffffffffffffffff16815260200188815250908060018154018082558091505060019003906000526020600020906002020160009091909190915060008201518160000160006101000a81548160ff02191690831515021790555060208201518160000160016101000a81548173ffffffffffffffffffffffffffffffffffffffff021916908373ffffffffffffffffffffffffffffffffffffffff1602179055506040820151816001019080519060200190610333929190610be5565b5050507fc4f0fe8da4c31907c5e6741ec9f6c2761aef2c6f0aa407d1f22b1420932631b3873360018060008c81526020019081526020016000208054905003896040516103839493929190610f44565b60405180910390a150505050505050565b60008034116103a257600080fd5b8167ffffffffffffffff164281116103b957600080fd5b60006040518060a001604052803373ffffffffffffffffffffffffffffffffffffffff1681526020018567ffffffffffffffff1681526020018681526020016000600281111561040557fe5b815260200134815250908060018154018082558091505060019003906000526020600020906005020160009091909190915060008201518160000160006101000a81548173ffffffffffffffffffffffffffffffffffffffff021916908373ffffffffffffffffffffffffffffffffffffffff1602179055506020820151816001015560408201518160020190805190602001906104a4929190610be5565b5060608201518160030160006101000a81548160ff021916908360028111156104c957fe5b02179055506080820151816004015550507fba1576d8891bfe57a45ac4b986d4a4aa912c62f44771d4eec8ab2ce06e3be5b76001600080549050033334876040516105179493929190610f44565b60405180910390a160016000805490500391505092915050565b81600080549050811061054357600080fd5b82826001600083815260200190815260200160002080549050811061056757600080fd5b846000818154811061057557fe5b906000526020600020906005020160000160009054906101000a900473ffffffffffffffffffffffffffffffffffffffff1673ffffffffffffffffffffffffffffffffffffffff163373ffffffffffffffffffffffffffffffffffffffff16146105de57600080fd5b8560008060028111156105ed57fe5b600083815481106105fa57fe5b906000526020600020906005020160030160009054906101000a900460ff16600281111561062457fe5b1461062e57600080fd5b87876000151560016000848152602001908152602001600020828154811061065257fe5b906000526020600020906002020160000160009054906101000a900460ff1615151461067d57600080fd5b60018060008c81526020019081526020016000208a8154811061069c57fe5b906000526020600020906002020160000160006101000a81548160ff021916908315150217905550600160008b815481106106d357fe5b906000526020600020906005020160030160006101000a81548160ff021916908360028111156106ff57fe5b0217905550600160008b8152602001908152602001600020898154811061072257fe5b906000526020600020906002020160000160019054906101000a900473ffffffffffffffffffffffffffffffffffffffff1673ffffffffffffffffffffffffffffffffffffffff166108fc60008c8154811061077a57fe5b9060005260206000209060050201600401549081150290604051600060405180830381858888f193505050501580156107b7573d6000803e3d6000fd5b50887f85d45a4e923ea9b336558bcd434d3f474644affd5df115bba14b63e75425bde48b60008d815481106107e857fe5b906000526020600020906005020160000160009054906101000a900473ffffffffffffffffffffffffffffffffffffffff16600160008f81526020019081526020016000208d8154811061083857fe5b906000526020600020906002020160000160019054906101000a900473ffffffffffffffffffffffffffffffffffffffff1660008f8154811061087757fe5b9060005260206000209060050201600401546040516108999493929190610eff565b60405180910390a250505050505050505050565b600081815481106108ba57fe5b90600052602060002090600502016000915090508060000160009054906101000a900473ffffffffffffffffffffffffffffffffffffffff1690806001015490806002018054600181600116156101000203166002900480601f0160208091040260200160405190810160405280929190818152602001828054600181600116156101000203166002900480156109925780601f1061096757610100808354040283529160200191610992565b820191906000526020600020905b81548152906001019060200180831161097557829003601f168201915b5050505050908060030160009054906101000a900460ff16908060040154905085565b8060008054905081106109c757600080fd5b81600081815481106109d557fe5b906000526020600020906005020160000160009054906101000a900473ffffffffffffffffffffffffffffffffffffffff1673ffffffffffffffffffffffffffffffffffffffff163373ffffffffffffffffffffffffffffffffffffffff1614610a3e57600080fd5b826000806002811115610a4d57fe5b60008381548110610a5a57fe5b906000526020600020906005020160030160009054906101000a900460ff166002811115610a8457fe5b14610a8e57600080fd5b600260008681548110610a9d57fe5b906000526020600020906005020160030160006101000a81548160ff02191690836002811115610ac957fe5b021790555060008581548110610adb57fe5b906000526020600020906005020160000160009054906101000a900473ffffffffffffffffffffffffffffffffffffffff1673ffffffffffffffffffffffffffffffffffffffff166108fc60008781548110610b3357fe5b9060005260206000209060050201600401549081150290604051600060405180830381858888f19350505050158015610b70573d6000803e3d6000fd5b503373ffffffffffffffffffffffffffffffffffffffff16857fb9670bf4f2273686f771c9ab65309436df5ed75afa63eefec8b67640d8bcf72c60008881548110610bb757fe5b906000526020600020906005020160040154604051610bd69190610ee4565b60405180910390a35050505050565b828054600181600116156101000203166002900490600052602060002090601f016020900481019282601f10610c2657805160ff1916838001178555610c54565b82800160010185558215610c54579182015b82811115610c53578251825591602001919060010190610c38565b5b509050610c619190610c65565b5090565b610c8791905b80821115610c83576000816000905550600101610c6b565b5090565b90565b600082601f830112610c9b57600080fd5b8135610cae610ca982610fbd565b610f90565b91508082526020830160208301858383011115610cca57600080fd5b610cd58382846110b0565b50505092915050565b600081359050610ced81611110565b92915050565b600081359050610d0281611127565b92915050565b60008060408385031215610d1b57600080fd5b600083013567ffffffffffffffff811115610d3557600080fd5b610d4185828601610c8a565b9250506020610d5285828601610cf3565b9150509250929050565b600060208284031215610d6e57600080fd5b6000610d7c84828501610cde565b91505092915050565b60008060408385031215610d9857600080fd5b6000610da685828601610cde565b925050602083013567ffffffffffffffff811115610dc357600080fd5b610dcf85828601610c8a565b9150509250929050565b60008060408385031215610dec57600080fd5b6000610dfa85828601610cde565b9250506020610e0b85828601610cde565b9150509250929050565b610e1e81611068565b82525050565b610e2d81611005565b82525050565b610e3c8161107a565b82525050565b6000610e4d82610fe9565b610e578185610ff4565b9350610e678185602086016110bf565b610e70816110f2565b840191505092915050565b610e848161104a565b82525050565b600060a082019050610e9f6000830188610e24565b610eac6020830187610e7b565b8181036040830152610ebe8186610e42565b9050610ecd6060830185610e33565b610eda6080830184610e7b565b9695505050505050565b6000602082019050610ef96000830184610e7b565b92915050565b6000608082019050610f146000830187610e7b565b610f216020830186610e15565b610f2e6040830185610e15565b610f3b6060830184610e7b565b95945050505050565b6000608082019050610f596000830187610e7b565b610f666020830186610e15565b610f736040830185610e7b565b8181036060830152610f858184610e42565b905095945050505050565b6000604051905081810181811067ffffffffffffffff82111715610fb357600080fd5b8060405250919050565b600067ffffffffffffffff821115610fd457600080fd5b601f19601f8301169050602081019050919050565b600081519050919050565b600082825260208201905092915050565b60006110108261102a565b9050919050565b600081905061102582611103565b919050565b600073ffffffffffffffffffffffffffffffffffffffff82169050919050565b6000819050919050565b600067ffffffffffffffff82169050919050565b60006110738261108c565b9050919050565b600061108582611017565b9050919050565b60006110978261109e565b9050919050565b60006110a98261102a565b9050919050565b82818337600083830152505050565b60005b838110156110dd5780820151818401526020810190506110c2565b838111156110ec576000848401525b50505050565b6000601f19601f8301169050919050565b6003811061110d57fe5b50565b6111198161104a565b811461112457600080fd5b50565b61113081611054565b811461113b57600080fd5b5056fea26469706673582212209c6e1dd7c24d3484d3b0adb9727487993ac6781f4ab20ad9efbba08f66b3672464736f6c634300060a0033",
  "immutableReferences": {},
  "source": "// SPDX-License-Identifier: MIT\npragma solidity >=0.6.0 <0.7.0;\npragma experimental ABIEncoderV2;\n\n// https://kauri.io/truffle-adding-a-frontend-with-react-box/86903f66d39d4379a2e70bd583700ecf/a \n\ncontract DApp {\n\n  event BountyIssued(uint bounty_id, address issuer, uint amount, string data);\n  event BountyFulfilled(uint bounty_id, address fulfiller, uint fulfillment_id, string data);\n  event FulfillmentAccepted(uint bounty_id, address issuer, address fulfiller, uint indexed fulfillment_id, uint amount);\n  event BountyCancelled(uint indexed bounty_id, address indexed issuer, uint amount);\n\n  enum BountyStatus { CREATED, ACCEPTED, CANCELLED }\n\n  struct Bounty {\n      address payable issuer;\n      uint deadline;\n      string data;\n      BountyStatus status;\n      uint amount; //in wei\n  }\n\n  struct Fulfillment {\n      bool accepted;\n      address payable fulfiller;\n      string data;\n  }\n\n  Bounty[] public bounties;\n\n  mapping(uint=>Fulfillment[]) fulfillments;\n\n  function issueBounty(string memory _data, uint64 _deadline) public payable hasValue() validateDeadline(_deadline) returns (uint) {\n      bounties.push(Bounty(msg.sender, _deadline, _data, BountyStatus.CREATED, msg.value));\n      emit BountyIssued(bounties.length - 1,msg.sender, msg.value, _data);\n      return (bounties.length - 1);\n  }\n\n  function fulfillBounty(uint _bountyId, string memory _data) public bountyExists(_bountyId) notIssuer(_bountyId) hasStatus(_bountyId, BountyStatus.CREATED) isBeforeDeadline(_bountyId) {\n    fulfillments[_bountyId].push(Fulfillment(false, msg.sender, _data));\n    emit BountyFulfilled(_bountyId, msg.sender, (fulfillments[_bountyId].length - 1),_data);\n  }\n\n  function acceptFulfillment(uint _bountyId, uint _fulfillmentId) public bountyExists(_bountyId) fulfillmentExists(_bountyId,_fulfillmentId) onlyIssuer(_bountyId) hasStatus(_bountyId, BountyStatus.CREATED) fulfillmentNotYetAccepted(_bountyId, _fulfillmentId) {\n      fulfillments[_bountyId][_fulfillmentId].accepted = true;\n      bounties[_bountyId].status = BountyStatus.ACCEPTED;\n      fulfillments[_bountyId][_fulfillmentId].fulfiller.transfer(bounties[_bountyId].amount);\n      emit FulfillmentAccepted(_bountyId, bounties[_bountyId].issuer, fulfillments[_bountyId][_fulfillmentId].fulfiller, _fulfillmentId, bounties[_bountyId].amount);\n  }\n\n  function cancelBounty(uint _bountyId) public bountyExists(_bountyId) onlyIssuer(_bountyId) hasStatus(_bountyId, BountyStatus.CREATED) {\n      bounties[_bountyId].status = BountyStatus.CANCELLED;\n      bounties[_bountyId].issuer.transfer(bounties[_bountyId].amount);\n      emit BountyCancelled(_bountyId, msg.sender, bounties[_bountyId].amount);\n  }\n\n  modifier hasValue() {\n      require(msg.value > 0);\n      _;\n  }\n\n  modifier bountyExists(uint _bountyId) {\n    require(_bountyId < bounties.length);\n    _;\n  }\n\n  modifier fulfillmentExists(uint _bountyId, uint _fulfillmentId) {\n    require(_fulfillmentId < fulfillments[_bountyId].length);\n    _;\n  }\n\n  modifier hasStatus(uint _bountyId, BountyStatus _desiredStatus) {\n    require(bounties[_bountyId].status == _desiredStatus);\n    _;\n  }\n\n  modifier onlyIssuer(uint _bountyId) {\n      require(msg.sender == bounties[_bountyId].issuer);\n      _;\n  }\n\n  modifier notIssuer(uint _bountyId) {\n      require(msg.sender != bounties[_bountyId].issuer);\n      _;\n  }\n\n  modifier fulfillmentNotYetAccepted(uint _bountyId, uint _fulfillmentId) {\n    require(fulfillments[_bountyId][_fulfillmentId].accepted == false);\n    _;\n  }\n\n  modifier validateDeadline(uint _newDeadline) {\n      require(_newDeadline > now);\n      _;\n  }\n\n  modifier isBeforeDeadline(uint _bountyId) {\n    require(now < bounties[_bountyId].deadline);\n    _;\n  }\n\n}\n",
  "sourcePath": "/home/dora/1. Kassavin/2. DApps/4_BountyHunt/contracts/DAppFile.sol",
  "compiler": {
    "name": "solc",
    "version": "0.6.10+commit.00c0fcaf.Emscripten.clang"
  },
  "schemaVersion": "3.2.2",
  "updatedAt": "2020-07-14T12:58:12.363Z",
  "networkType": "ethereum",
  "devdoc": {
    "methods": {}
  },
  "userdoc": {
    "methods": {}
  }
}